:1000000000000320D1010000512E0000092E000045
:10001000092E0000092E0000092E0000092E000004
:10002000092E0000092E0000092E0000512E0000AC
:10003000512E0000092E0000C1410000C541000002
:10004000512E0000512E0000512E0000512E0000B4
:10005000512E0000512E0000512E0000512E0000A4
:10006000512E0000512E0000512E0000512E000094
:10007000512E0000512E0000512E0000512E000084
:10008000512E0000512E0000512E0000512E000074
:10009000512E0000512E0000512E0000512E000064
:1000A0006925000075250000512E0000512E00002A
:1000B000512E0000512E0000512E0000512E000044
:1000C000512E0000512E0000512E0000512E000034
:1000D000512E0000512E0000512E0000512E000024
:1000E000512E0000512E0000512E0000512E000014
:1000F000512E0000512E0000512E0000512E000004
:10010000512E0000512E0000512E0000512E0000F3
:10011000512E0000D1330000512E0000512E00005E
:10012000512E0000512E0000512E0000512E0000D3
:10013000512E0000512E0000512E0000512E0000C3
:10014000512E0000512E0000512E0000512E0000B3
:10015000512E0000512E0000512E0000512E0000A3
:10016000512E0000512E000081250000512E00006C
:10017000512E0000512E0000512E0000512E000083
:10018000512E0000512E0000512E0000512E000073
:10019000512E0000512E0000512E0000512E000063
:1001A000512E0000512E0000512E0000512E000053
:1001B000512E0000512E0000512E0000512E000043
:1001C000512E0000512E0000512E0000512E000033
:1001D0005C4B4CF2205210B51A804DF628121A8052
:1001E00000BF00BF02F038FE574B4FF030621A607C
:1001F000564A9A60564ADA60564B4FF470021A60BB
:10020000554B564A1A60564B1A78110703D51A787F
:1002100042F008021A70534B5349AA221A70534AEB
:10022000534B8B4204D252F8040F43F8040BF8E707
:10023000504B514900228B4202D243F8042BFAE77B
:100240004E494F4A002352F8230041F8230001335E
:10025000742BF8D14B4B4C4A802103F8011B93427D
:10026000FBD14A4B454A1A60494B8A221A70A3F5C2
:10027000805324225A70A0221A709A799207FCD5D2
:100280009A79D406FCD4434A937903F00C03082BE3
:10029000FAD1414B60221A7002331A78802AFCD1BD
:1002A0003C4B01221A715D225A719A799006FCD555
:1002B0009979384A4906FBD5384B394919600021EC
:1002C000596020231370937903F00C030C2BFAD19F
:1002D000344B354A1A60354A354C136813F4807331
:1002E00003D123604FF4A8531360324B324A1A6093
:1002F00000225A60072243F8042C304AC3F80C2D20
:1003000062B602F0F7FE2368DA0705D52C4802F042
:1003100081FE2C4B2C4A1A602C4B1B785B0609D5AE
:10032000284C294B22689A4204D1254802F072FEDB
:100330000023236004F018FE02F094FD02F088FC14
:10034000FEE700BF0E20054030800440823F0400DD
:100350000100002B88ED00E0002008E0030000858C
:1003600002D0074000E007407C11FF1FEC5E000058
:100370003007FF1F7C11FF1F4C3CFF1F0002FF1FB7
:100380000000000000E400E064E400E008ED00E0AC
:10039000005006400040064001E007404480044011
:1003A0000000060204800440C010070010D0034083
:1003B00014D0034014E000E01FBF02000000202022
:1003C00061A96D611CE00340A5C3945A00F0074089
:1003D000FFFFFFFFFFFFFFFFFFFFFFFFFFFFFFFF2D
:1003E000FFFFFFFFFFFFFFFFFFFFFFFFFFFFFFFF1D
:1003F000FFFFFFFFFFFFFFFFFFFFFFFFFFFFFFFF0D
:10040000FFFFFFFFFFFFFFFFFFFFFFFFDEF9FFFF23
:1004100010B5054C237833B9044B13B10448AFF33E
:1004200000800123237010BD7C11FF1F000000001D
:10043000E85E0000084B10B51BB108490848AFF34F
:1004400000800848036803B910BD074B002BFBD0A0
:10045000BDE81040184700BF000000008011FF1FDA
:10046000E85E00007C11FF1F00000000704700BF25
:1004700000207047034B186810B103681B681847C9
:10048000704700BFB43AFF1F42F61013F0B5C150D9
:100490004348444F05680368B7FBF1F643F0A043B7
:1004A000B7FBF6F791B005F080750360CF1B0368CA
:1004B000DC01FCD5052E70D90020DFF8E8E0044609
:1004C000831CB6FBF3FCBCF1190F00F101000CFB1F
:1004D00003F3F5D8BEFBF3F3CB1A002BB8BF5B4296
:1004E000BB4217DB17D0BCF1050FE9D8631CB6FB84
:1004F000F3F6053E142E02D8B7F5967F16DD3DB90A
:10050000274A136823F0805313601368D901FCD481
:1005100011B0F0BD0446BCF10B0F05D9BCF1120FB0
:1005200098BF04461F46DEE71F46DCE717461E4914
:100530003F22684602F094FB06EB460610AB1E44D1
:100540001A4816F8403C16F83F1C16F83E2CC90411
:1005500003F0070646F4800601F46013120446EA2D
:10056000030102F4E0230B4343F4804343EA0464B1
:1005700004600368022F14BF23F0080343F008034C
:100580000360002DC4D1064A136823F08053136022
:100590001368DB01FCD411B0F0BD01230024A6E7F1
:1005A000004002400024F400F459000004400240DE
:1005B000704700BF00207047002070470820704738
:1005C000104A1149136808681268096802F07F022E
:1005D000C1F3036101320431B2EB410F10D303F0D8
:1005E0007F03C0F30360053B0130A3EB4000C3B2BF
:1005F000044A106800F07F000130C01AC0B2704792
:100600000023F5E700400240344002400349012244
:100610000B6802FA00F003430B6070473040024061
:1006200010B584B00DF10F03002400930DF10D02FD
:100630000DF10E0303A923488DF80F408DF80E40ED
:100640008DF80D408DF80C4002F0D6F801211E48BF
:1006500003F01AFC9DF80C301BB902211B4803F073
:1006600013FC04211A4803F00FFC00230A229DF812
:100670000C10184802F0C6F90321174803F004FCD7
:1006800000230A229DF80D10124802F0BBF9032145
:10069000124803F0F9FB00230A229DF80E100D48C2
:1006A00002F0B0F903210E4803F0EEFB00230A220A
:1006B0009DF80F10074802F0A5F9064802F08EF9E0
:1006C00004B010BDB83AFF1F345A0000385A000079
:1006D0003C5A00008008FF1F445A0000485A00009E
:1006E0004C5A00006B4A2DE9F84F1468136843F028
:1006F000A04304F08074136013686648DD01FBD5E5
:100700000368654D23F00053002203602A600368EC
:1007100007461546614B62485E4E134410441B0168
:100720008000DD609D605D601D6005603B6801329A
:1007300003F07F03D2B201339A424FF00000E9D3B5
:10074000584A594D594B286010601A681A6033682E
:10075000002944D1DFF85CA1DFF83C91544F0D46ED
:100760004FF000684FF0010B1BE0336803F07F038C
:100770000133B1EB930F2CBF4FF08C634FF08063CC
:1007800013603B6813F4803318BF4FF0804303605D
:100790003368013503F07F03EDB201339D422946F2
:1007A0002DD233683E483D4A03F07F03013328448D
:1007B0002A44B1EB530F4FEA80004FEA0212D4D320
:1007C000C2F8008033689A0053D41F2D0BFA05F24B
:1007D00056D8D9F800301343C9F80030D8E743F0B1
:1007E00000533360356815F0005514D0FFF7E8FE6C
:1007F000336803F07F030133984205460CD3002C85
:100800003CD1244A136823F0805313601368DB0142
:10081000FCD4BDE8F88F33681E4F264EDFF8788091
:1008200011E001231F2D03FA05F31AD8D8F8002090
:100830001343C8F800303B68013503F07F03EDB285
:1008400001339D42DBD2154B2B441B014FF000625C
:100850001A603B689900E4D5FFF7B2FEA842EAD8D7
:10086000DFE732680123A5F120018B401343336099
:10087000E1E7FFF7A5FEA8428AD8A6E7BDE8F88F12
:10088000DAF80020A5F120030BFA03F31343CAF8AA
:1008900000307DE700400240284002400824000468
:1008A0002092001010400240484002403040024078
:1008B0003440024024400240F8B542F60C1105468F
:1008C00042F6151200234B206850614CAB546B600C
:1008D000AB60EB602B6122785E485F4F5F49604EF2
:1008E00042F08002227002685E4CC7F86C4142F010
:1008F000100202600A6822F400520A603278002A6C
:1009000000F09980584A11683370002900F09380F4
:100910001168B1F5007F08BF1360544B4FF40072AB
:100920001A60534B1A78002A79D0524A1068002175
:100930001970002873D01368B3F5007F4E4B08BFC1
:1009400011604FF400721A604C490B6823F00043A9
:100950000B600B6843F0A0430B600A68474BD6015D
:10096000FBD53E490A6842F008020A601A6842F064
:1009700080421A601A461168404BCC02FBD41A68B8
:1009800042F000721A601A689001FCD43B4A136866
:100990003A4CD901FBD52368394A43F4003323602C
:1009A000236843F480332360236843F48053236037
:1009B000236843F400532360236843F480032360D7
:1009C000236843F400232360236823F4084323604F
:1009D000136843F4E0231360236843F40013236097
:1009E000236843F08063236000212846FFF77AFEE6
:1009F000236823F0805323602368DB01FCD442F694
:100A00000C130121EA5853099B0003F1604303F5DD
:100A1000614302F01F0201FA02F21A60F8BD164BA0
:100A20001A68B2F5007F04BF00221A60114B4FF420
:100A300000721A6088E70D4B1A68B2F5007F04BF98
:100A400000221A60084B4FF400721A6069E700BF79
:100A5000005006403C8004400002FF1F044002405A
:100A60003507FF1F750400003090044048A0044083
:100A70003407FF1F349004404CA004400040024063
:100A80003440024038B53F4801F07AFA01210E2087
:100A900002F0D8FA00210E2002F0CEFA20213A48C6
:100AA00003F0F2F9394801F099FF3948FFF704FFE4
:100AB000002238493648FFF7E7FC374A136843F00D
:100AC000A04313601368344CD901FBD50021304892
:100AD0002568FFF707FE314B1A681A60236823F078
:100AE0007F032360236843F00F032360AB0044D4EB
:100AF000294B1A6822F080521A60196811F080712F
:100B0000FBD1274803F0C0F9204801F067FF0C2112
:100B1000244801F089FD18B93C21234803F0B4F9B9
:100B20004FF47A7002F094FA1E4801F093FE1521FA
:100B300004461E4803F0A8F92146144801F0A2FF1C
:100B400002211B4803F0A0F9104801F047FF0021E3
:100B5000134803F099F90D4801F040FF01211148B5
:100B600001F008FE3D21134803F08EF9074801F01B
:100B700035FFBDE83840FFF753BD01210448FFF7BA
:100B8000B1FDB5E7A407FF1F8C5A00008008FF1FC6
:100B90009C11FF1F20A1070000400240304002408E
:100BA000545B0000B83AFF1FB05A0000F05A000032
:100BB000085B00000C5B00001F2938B50D46144689
:100BC00033D91C49A5F120000A680123834013434F
:100BD0000B60194BE2792B441B014FF00061196047
:100BE000BAB1217A2268002922F060425A6014BF0B
:100BF0004FF4E0014FF4C001E06800BA986020694A
:100C000000BAD860E27A41EA024242F040621A60D9
:100C100038BD2168207A094A89040A4000285A60B0
:100C20000CBF00214FF48011E6E70846FFF7EEFC09
:100C3000CFE700BF2C400240082400040000FC1F46
:100C4000F0B500F5D8541A3487B0182705463A464F
:100C5000684602F005F863881A2203F00F0302FBCE
:100C6000034300219975638803F00F0302FB0343DC
:100C700041F61A36DF75608800F00F0002FB004075
:100C800069463A46384401F0EBFF6288AB5B9BB2A1
:100C900092B283F010039A420ED06388013303F0BE
:100CA0001F036380A3889BB20F2B03D8A388013353
:100CB0009BB2A38007B0F0BDAB5B013303F01F0311
:100CC000AB53EAE7F0B58B7D474C054687B00E463F
:100CD0002068002B38D110F0005062D12368014603
:100CE000424B0B441B011B68C3F30363082B24D046
:100CF0003D4A04E02368C3F30363082B1DD0136847
:100D00003A4C481C03F07F03C1B201330C449942B2
:100D10004FEA0414EED30FCE6C460FC496E80300DE
:100D2000FF2384E80300284669468DF81430FFF756
:100D300087FF4FF0FF3007B0F0BD28463246FFF77F
:100D40003BFF012007B0F0BD10F0005033D1236805
:100D5000264B03441B0104461A68110114D422498E
:100D600002E01A6812010FD40A68204B013002F029
:100D70007F02C0B20132034490424FEA031304469B
:100D8000EFD31B4B4FF0FF341B68C3F30363082BF7
:100D90001AD128463246E1B2FFF70EFF012007B014
:100DA000F0BDFFF70DFC236803F07F03013383429E
:100DB000014695D8AFE7FFF703FC236803F07F03F4
:100DC00001338342C4D8DCE70FCE6F460FC796E8E5
:100DD000030087E80300284669468DF81440FFF7B2
:100DE0002FFF4FF0FF30A6E7004002400824000428
:100DF0007040024070B58CB014226A49684601F018
:100E00003BFD0321684803F03FF89DED000B0221F4
:100E1000664801F041FE0421654803F035F89DED78
:100E2000020B0221614801F037FE0421614803F002
:100E30002BF89DED040B02215C4801F02DFE0121F1
:100E40005D4803F021F8DDE9000103F0E9FF80EAE5
:100E5000E074A4EBE074DDE9020103F0E1FF80EA55
:100E6000E073A3EBE073DDE904011C4403F0D8FF59
:100E70000028B8BF4042C44206D00E20012102F033
:100E8000DBF8FA2002F0E4F800210E2002F0D4F89A
:100E900000240022494B08940325DDE900010126C6
:100EA000079409940A940B9406968DF8235003F046
:100EB00007FD03F0DDFF0022404B8DF82400DDE943
:100EC000020103F0FDFC03F0D3FF00223B4B8DF841
:100ED0002500DDE9040103F0F3FC03F0C9FF06A9D6
:100EE0008DF826003648FFF7EDFE2946354802F01A
:100EF000CBFF9DF92C102D4801F0C4FD0A2132488A
:100F000002F0C2FF9DF82110284801F0BBFD062128
:100F10002E4802F0B9FF23460A229DF823102348E9
:100F200001F070FD06212A4802F0AEFF9DF81F1067
:100F30001E4801F0A7FD0521264802F0A5FFBDF8D7
:100F40001C101A4801F09EFD0521234802F09CFF69
:100F5000234610220699154801F054FD09211F4827
:100F600002F092FF9DF8233093B10CAB1A190F4891
:100F700012F80C1C0023102201F044FD0121184836
:100F800002F082FF01349DF82330E4B2A342ECD892
:100F90000121094802F078FF044801F01FFD0CB060
:100FA00070BD00BFB83AFF1F4C5B00008008FF1FF8
:100FB000505B0000585B0000605B0000000059407F
:100FC0009C11FF1F505A0000645B0000705B000022
:100FD000685A0000705A0000785A0000805A0000D9
:100FE0007C5A000010B51421044601F089FF204608
:100FF00010BD00BF01EB4101C90030B400F504543D
:1010000063186058C0002AD56058400F012829D0C5
:101010006058400F022839D06058400F052802D090
:10102000002030BC70476058C0F3C210C0B158698E
:101030005C68596910402140884210D001211C6829
:101040000131C4F3C214C9B20134A142E8D25C69CF
:1010500053F821505869144028408442EFD10120B0
:1010600030BC70476158C1F3C211C1B159688A429E
:10107000F6D01968C4B2C1F3C2118C4204F1010068
:10108000CED253F820109142F3D1E8E759688A4252
:10109000C6D3986882428CBF00200120E0E7084652
:1010A000DEE700BF0B78632B70B5044615460FD002
:1010B00000EB830342F204729B580BB12846984719
:1010C00042F60403E3584BB12846BDE87040184788
:1010D00042F20473C358002BF0D1F1E770BD00BF9A
:1010E0002DE9F04F0D46064689460FCD8DB06C4672
:1010F0000FC495E8030084E80300DFF800A135463B
:1011000006F110074FF0010855F8044F6CB1D4E90F
:1011100002019DF9142008FA02F31840002150EA58
:1011200001034ED1237C002B3ED1BD42ECD106F50C
:101130001C531B78002B4FD01824494622460DEB38
:10114000040001F08DFDF38A1A20DBB200FB03637B
:10115000002283F81A21F38ADBB200FB03632246E4
:1011600083F81B41F38ADBB200FB03600DEB040143
:1011700000F58E7001F074FDF28AB38A9BB292B2D0
:1011800083F480739A4233D0F38A0133C3F30803A4
:10119000F382338B9BB2FF2B03D8338B01339BB28B
:1011A00033830DB0BDE8F08F2368D3F800B0D3458A
:1011B000BBD020469DF815304FF0FF326946D84726
:1011C000B3E72368D3F800B0D345ABD09DF8153012
:1011D00069462046D847A5E70CA999F8143001F8CC
:1011E000183D30464A46FFF75DFF0DB0BDE8F08F71
:1011F000B38A0133C3F30803B382C5E77104000067
:1012000042F20173C35C002B00F0AA802DE9F04F7D
:101210000F460E4605460FCF89B002AC0FC497E8C3
:10122000030084E80300974B1B689B0054D5964B42
:101230001B68C3F3036A4FEACA0A0AF1080A0024CA
:101240004FF0630B0CE01968490F022900F09580FC
:101250001968490F052900F0AD80013454453BD091
:1012600096F91430632B5FFA84FE35D004EB440802
:1012700005EBC80909F5F053196811F0604FECD07F
:101280001968490F0129DED11A68F179C2F30042C9
:101290009142E2D11A6812F4607FDED01F464FEA15
:1012A0004808002306E03A685FFA89F3C2F3C212E5
:1012B0009342D2D203F1010908EB090303F5F0636D
:1012C000029A55F823309A42EDD102A928468DF8AA
:1012D0001CB0FFF705FFE6E700236A4F8DF80E30DC
:1012E0003C6814F000543CD13B68DFF8988108E07A
:1012F000D8F80030013403F07F03E4B201339C429C
:1013000038D296F91430A342F2D004EB440105EB35
:10131000C10202F50453186810F0604FE8D0186855
:10132000F779C0F3C0608742E2D11868400F012806
:1013300074D01968490F022900F094801B685B0F74
:10134000052BD5D1029A21462846FFF753FE0028E7
:10135000CED002A928468DF81C40FFF7C1FEC7E792
:101360007047FFF72DF93B6803F07F030133984284
:101370000446BAD309B0BDE8F08F1B68F279C3F315
:1013800000439A427FF469AF09F5F0530433029A9F
:101390001B689A42FFF461AF09F5F059D9F808309B
:1013A0009A423FF65AAF02A928468DF81CB0FFF7C3
:1013B00097FE52E71B6813F4607F3FF44EAF09F5C8
:1013C000F0534FEA4808143301270AE009F5F051B9
:1013D00001370968C1F3C211FFB201318F42BFF476
:1013E0003CAF08EB070101F5F0611868029A55F867
:1013F00021C0196810400CEA01018842E6D102A917
:10140000284601938DF80EE0CDF800E08DF81CB071
:10141000FFF766FE019BDDF800E0D7E71A6812F4DB
:10142000607F3FF465AF1F464FEA410A002307E0A3
:101430003A685FFA89F3C2F3C2129342BFF458AF1D
:1014400003F101090AEB090303F50463029A55F855
:1014500023309A42ECD102A928468DF81C40FFF7B0
:101460003FFEE5E702F50453043302991B689942F5
:10147000FFF43EAF02F50452936899427FF669AFDC
:1014800036E700BF00400240344002402DE9F04FF3
:101490009BB00023A84CA9490A93082508930993F7
:1014A0000B930C930D938DF82B50D4F80090A44A15
:1014B0000B680593194613681C04804603D413680F
:1014C0009B0000F14B81DFF878A2059BDAF8004021
:1014D00043F00105B5FA85F5C5F1200514F0005477
:1014E000EDB240F0AA80DAF80030029508F5245AEF
:1014F000534608330AF1150ACDF818A00793DDF812
:1015000014A016E0062A00F0FD80042A00F05E8296
:10151000082A00F0C9818A4B1B68013403F07F035D
:10152000E4B201339C4280F09580029BA34200F01C
:10153000918029FA04F606F00102002313434FF0CC
:101540000007E8D02AFA04F38DE88800DDE90023DB
:10155000002302F001021343DDD07A4B23444FEA0B
:10156000031BDBF80030C3F30362022ACAD103F481
:101570000012002ADBF8041014BF012000208DF8AF
:10158000270021F0604140F0D080890C0891C3F31E
:1015900003418DF82B1006998DF8344009788DF8A9
:1015A0003510DBF808108DF82F10DBF80810ADF8B7
:1015B00024300B0A8DF82E30DBF808301B0C8DF828
:1015C0002D30DBF808301B0E8DF82C30DBF80C309A
:1015D0008DF83330DBF80C301B0A8DF83230DBF835
:1015E0000C301B0C8DF83130DBF80C30002A4FEA40
:1015F00013630CBF4FF080624FF08C628DF8303077
:10160000514BCBF8002020461B68FEF7FFFF089ADD
:1016100021464046FFF7EEFC002840F0408108A933
:101620004046FFF7EDFD08A8AFF3008008A8AFF330
:10163000008008A8AFF300806DE7FEF7C1FFDAF87D
:10164000003003F07F0301339842044602D2854202
:101650003FF64BAF3D4B3E4C186821683D4A414038
:101660000A40002A45D008F5E65310339A8892B212
:101670000F2A3ED89A8892B20F2A40F2988141F6FA
:10168000D04659885D8838F8062001F00F0192B2E3
:101690000231ADB282F01002954243F8210000F011
:1016A0005A8259882C4D08F5EC52013101F01F0186
:1016B000183259802E6893889BB20F2BB6B240F235
:1016C000718141F698575188558838F8073001F0F4
:1016D0000F019BB202EB4101ADB283F010039D42BA
:1016E000CE8000F0308253882060013303F01F0366
:1016F0005380164A136803431360BFF34F8F1BB028
:10170000BDE8F08F03F40012002ADBF8041014BFC8
:10171000012000208DF8270021F0604108D1890CBC
:10172000089101218DF8291031E7089101222EE757
:1017300008910122F5E700BF2840024030400240F6
:1017400000400240082400040840024020400240BB
:101750009811FF1FBFFF07001C40024019F0200F27
:101760003FF4B1AE8D067FF5AEAE934B934A1B6846
:10177000ADF82430C3F303418DF82B101268904963
:1017800003F40010002814BF0020122022F0604251
:1017900022FA00F24FEAD35008928DF826000A6828
:1017A0008DF82F200868874A4FEA10208DF82E0008
:1017B00008684FEA10408DF82D0008684FEA106065
:1017C0008DF82C0010688DF8330010684FEA102057
:1017D0008DF8320010684FEA10408DF83100126821
:1017E00042F615104FEA126218F800008DF830200A
:1017F0004FF063028DF834208DF8350014BF0122BC
:101800000022C3F3005305208DF8283051F8803CA6
:101810008DF82720FEF7FAFE059B5B0600F1D881C4
:10182000059B1C0600F1D08108A94046FFF7E8FCA3
:1018300008A8AFF3008008A8AFF3008008A8AFF3B2
:10184000008008F5F0531B68D80040F169815E4BB9
:10185000DDF820E01B68CDE90267C3F3036B4FEAB4
:10186000CB0B0BF1080B4FF0000C0CEB4C0008EB12
:10187000C00202F5F0510B685B0F012B00F03581BF
:101880000B685B0F022B00F050810B685B0F052B80
:1018900000F069810CF1010CE345E6D113E608A9DB
:1018A0004046FFF71DFCBAE6069ADBF804101278F2
:1018B0008DF83440C3F303408DF835208DF82B00AC
:1018C000DBF808208DF82F20DBF80820ADF8243055
:1018D000120A8DF82E20DBF80820120C8DF82D202E
:1018E000DBF80820120E8DF82C20DBF80C208DF888
:1018F0003320DBF80C20120A8DF83220DBF80C20A4
:10190000120C03F400108DF8312004F60223002895
:10191000DBF80C0058F8232021F0604314BF0021AD
:10192000122123FA01F34FEA106114BF01200020B5
:1019300008938DF830108DF827000AB108A8904759
:10194000079B1B680BB108A8984708F5D85B0BF1FB
:101950001A0BBBF804309BB2002B00F05681BBF889
:1019600000301A2103F00F0301FB03B118311822D4
:1019700014A801F075F90DF1500EBEE80F000EAD80
:10198000AC46ACE80F009EE803008CE803009DF92C
:101990004C305A1C00F020819C427FF4BCAD2A469A
:1019A000E1B21BE1938801339BB2938089E69A8868
:1019B000013292B29A8062E6804002408440024046
:1019C000884002408C40024034400240069ADBF8D6
:1019D000041012788DF83440C3F303408DF835209D
:1019E0008DF82B00DBF808208DF82F20DBF808207D
:1019F000ADF82430120A8DF82E20DBF80820120CE6
:101A00008DF82D20DBF80820120E8DF82C20DBF845
:101A10000C208DF83320DBF80C20120A8DF83220D0
:101A2000DBF80C20120C03F400108DF8312004F6C2
:101A300002230028DBF80C0058F8232021F0604333
:101A400014BF0021122123FA01F34FEA106114BFE1
:101A50000120002008938DF830108DF827000AB17E
:101A600008A89047079B1B680BB108A8984708F582
:101A7000D8531A3305939B889BB2002B00F09C80AF
:101A8000059A13881A2103F00F0301FB0321183173
:101A9000182214A801F0E4F80DF1500EBEE80F0072
:101AA0000EADAC46ACE80F009EE803008CE80300E6
:101AB0009DF94C30591C00F0AC809C427FF42BAD5A
:101AC0002A46E1B24046FFF777F805990B880133C3
:101AD00003F01F030B808B889BB2002B3FF41BADE0
:101AE0008B88013B9BB28B8015E50C6814F4607FFA
:101AF0003FF4D0AE0A4604321268964510D00C4628
:101B000045002268D8B2431CC2F3C212E9189042C1
:101B100001F5F061BFF4BEAE58F821209645F0D132
:101B200008A94046FFF7DCFACDE402F5F053043390
:101B30001B689E45FFF4AEAE02F5F05293689E45D9
:101B40003FF6A8AEECE738F80730013303F01F0387
:101B500028F80730C7E538F80620013202F01F02E6
:101B600028F806209DE50B6813F4607F3FF492AEE1
:101B700002F5F054224614342568536827680EEAAB
:101B800005023B409A42CBD0400001230A68013352
:101B9000C2F3C212DBB20132C518934205F5F065FB
:101BA000BFF478AE266858F8257022680EEA06055C
:101BB0003A409542EAD1B3E72046FEF727FD4FF0C1
:101BC0000063CBF80030A6E40720FEF71FFD2BE6EC
:101BD0000620FEF71BFD23E62A4621464046FEF777
:101BE000EBFFBBF80030013303F01F03ABF800300C
:101BF000BBF804309BB2002B3FF48DACBBF8043033
:101C0000013B9BB2ABF8043085E42046FEF7FEFCB6
:101C100081E42A46214655E72DE9F04100F51C53A1
:101C20008EB01A7805460AB901221A702B8B9BB226
:101C3000002B4FD142F60C130122EB58754903F0EB
:101C40001F005B0905F5D856824041F823201A365B
:101C5000B3889BB241F61A3813B335F808301A210D
:101C600003F00F0301FB03611831182208A808AC28
:101C700000F0F6FF0FCC02AFBE46AEE80F0094E8CE
:101C800003008EE803009DF91C20531C58D0624BC2
:101C900013441B011B68C3F30363082B00F08C8003
:101CA00042F60C130121EA5853099B0003F16043EB
:101CB00003F5614302F01F0201FA02F21A602B8B56
:101CC000B0889BB280B21B0380B2002118430EB0D3
:101CD000BDE8F0812A461A2132F8143FDBB202AF88
:101CE00001FB032101F58471002308A808241822B0
:101CF000BB6002937B60FB603B617B618DF81340AE
:101D000000F0AEFFAB8A0133C3F30803AB822B8B29
:101D10009BB21BB12B8B013B9BB22B8308AC0FCC2E
:101D20003E460FC694E8030086E803000EA99DF81E
:101D30001C3001F8313D3A462846FFF7B3F979E700
:101D4000DFF8E480D8F8004014F0005457D1D8F8F8
:101D50000030DFF8D48008E0D8F80030013403F018
:101D60007F03E4B201339C429AD22B4B23441B01E4
:101D70001B68C3F30363082BEED10A21274802F046
:101D800083F89DF91C10264800F07CFE244800F0E2
:101D900025FE3A4621462846FEF70EFF33880133DA
:101DA00003F01F033380B3889BB2002BD4D0B388D9
:101DB000013B9BB2B380CFE709211A4802F064F8D7
:101DC0009DF91C10164800F05DFE154800F006FE57
:101DD0003A469DF81C102846FEF7EEFE35F808300E
:101DE000013303F01F0325F80830B3889BB2002BA2
:101DF0003FF456AFB388013B9BB2B38050E7FEF788
:101E0000DFFBD8F8003003F07F0301338342044640
:101E10009FD845E780E100E008240004785B0000DB
:101E20008008FF1F845B000000400240F8B5214C91
:101E3000214B204628224FF0FF3100F0C7FB2046FF
:101E40001E4A1F4902F07AFA1E4B1F4A1A6041F6D9
:101E50001C3641F61E3441F6D04041F61A3E0022AF
:101E60009A8241F6D247DA8241F6D4451A8323F8A2
:101E70000E209A531A5341F698561A5241F69A5424
:101E800041F69C50DA535A539A531A531A5242F657
:101E900014100E491A5403F51C5742F2017542F60C
:101EA0000C1642F610143A709A515A551A510B609A
:101EB000F8BD00BFB83AFF1FA407FF1F3007FF1F80
:101EC000B10500009C11FF1FD8590000B43AFF1F54
:101ED0000020704790F8392090F83800101A7047A9
:101EE00090F8383090F839209A4205D95A1C0344AA
:101EF00080F83820187E70474FF0FF30704700BFE1
:101F000090F8383090F839209A4286BF1B18187E16
:101F10004FF0FF30704700BF704700BF38B505462F
:101F2000B0F85E0090B195F85D301446C3F121021F
:101F300094420CD805F13B001844224600F090FE74
:101F400095F85D30234485F85D30204638BD01208A
:101F500014462871EEE700BFB0F85E306BB190F820
:101F60005D30202B07D8C218013380F85D30012086
:101F700082F83B107047012303710020704700BFB7
:101F80000023426980F8383080F8393080F85C30BE
:101F900080F85D3080F85E3080F85F3006CA30B47B
:101FA0000D68046943662A4383660A60A370426928
:101FB00090F861301649146813441D7A5B7B01EB7D
:101FC000C5051B026D6803F4E06343F064032B60F6
:101FD00090F8623013449D7CDB7D01EBC5011B0250
:101FE000496803F4E06343F064030B6021685368BD
:101FF000194205D003692C225A70036904229A7190
:10200000036920225A71036980229A7030BC70479C
:10201000485C000038B50269D478E4B2E1060546B0
:1020200024D51023D37063061FD504F0040404F0F4
:10203000FF03002C5AD042496A6E00230B7085F8CA
:102040005D30002A66D0904795F85D30002B61D056
:102050002B69D0229A702B6995F83B201A712B6955
:10206000012285F85C200222DA7038BD04F04003BA
:1020700003F0FF00002BD8D19379DBB203F06001AD
:1020800060294ED0937803F0100303F0FF01B3B141
:1020900014F0010437D195F85C3095F85D10994241
:1020A0004BD9591C2B4485F85C1093F83B301371C5
:1020B0002B69D0229A702B690222DA70D5E785F855
:1020C0006010937943F0200393712B6995F83910D0
:1020D0001A791F29D2B2C6D8194800780028C2D070
:1020E0006818013185F839100276BCE72A6985F84D
:1020F0003930C02393702B69114A1979012111706D
:102100000222DA70B1E7C02393702B691A79022298
:10211000DA70AAE70122002385F85D2085F83B30BC
:1021200096E703F0DF039371AB6E23B185F83800B7
:1021300095F8390098472A69A4E71471B8E700BFF9
:10214000CC3AFF1F2DE9F047374FDFF8E0903B68AE
:10215000026982B006460093DDF8008000214FF44A
:102160009675D3789B065BD53B680193019BC8EBC2
:1021700003030F2BF5D949B1102BF2D0002090703A
:10218000336980229A7002B0BDE8F087726996F8D0
:10219000613013440521187A00F054FF726996F8F3
:1021A00061301344012193F812A0504600F04AFF19
:1021B00009240021504600F03FFF2B46013BFDD192
:1021C0000121504600F038FF2B46013BFDD1013C78
:1021D000EFD1706996F8611001444FF416720C7AD1
:1021E0004B7B09EBC4011B02496803F4E06343F035
:1021F00064030B6096F862300344997CDB7D09EB45
:10220000C1011B02496803F4E06343F064030B60FF
:10221000013AFDD13269D3789B064FF00101A3D476
:10222000012002B0BDE8F087D03AFF1F485C0000F3
:10223000F0B503691222DA700269937803F0200383
:1022400085B004460D46002B5ED0B42393703C4904
:1022500022690B680093009E05E00B680193019BC7
:102260009B1B042B42D8D37803F0200303F0FF001C
:10227000002BF2D094F85D30002B31D04FF0000EDF
:102280004FF0020C04EB0E0393F83B3013710B6814
:102290000393039F206907E09B060DD50B6802930B
:1022A000029BDB1B052B28D8C378DBB203F00202AC
:1022B00002F0FF06002AEFD080F803C02669F37809
:1022C000DBB2DF0632462DD49F062BD5DB0731D497
:1022D0000EF1010E94F85D305FFA8EFE7345D1D891
:1022E00000201DBB002384F85E3004E09070236959
:1022F00080229A70042005B0F0BD86702369802288
:1023000004209A7005B0F0BD03F0FF06FFF71AFF36
:1023100010B9042005B0F0BD236984F85F60B022D5
:102320009A7094E78023B3700420DAE7266980234B
:10233000B370D7E7BEF1000F0CBF02200320F6E711
:10234000D03AFF1F2DE9F04106690025122780F8D9
:10235000385080F83950F770D0F810C09CF802E07F
:102360000EF0200E88B00446884615461E46BEF183
:10237000000F49D0B4238CF802307A4B21691A68D7
:102380000092DDF800E006E01A6801920198CEEBB9
:102390000000042830D8C87800F0200000F0FF07C3
:1023A0000028F1D04FEA480242F00102D2B20A718D
:1023B0001A680292DDF808E0206906E01A680392C4
:1023C0000399CEEB010105292AD8C17801F0020159
:1023D00001F0FF070029F1D04FF0020C80F803C094
:1023E0002269D17811F0110722D12DBB002E0CBF2C
:1023F000A0238023937003E08F70236980229A705A
:10240000384608B0BDE8F0810EF0FF07FFF79AFEEE
:102410000028F5D0236984F85F70B0229A70ACE789
:1024200087702369802238469A7008B0BDE8F08131
:10243000802393700027E3E7012D78D0A0219170CD
:1024400021690A79BE4667464FF0A80C1A680492C3
:10245000049805E01A680592059A121A052A4DD8C3
:10246000CA7802F0020202F0FF08002AF2D0CF7010
:102470002169CA78D2B212F0100F08465DD19206D7
:102480005BD5013DEDB2012D4CD0BEF11F0F3ED901
:102490000A79012DDAD11A680692069D05E01A68BC
:1024A0000792079A521B052A56D8C27802F00202F8
:1024B00002F0FF01002AF2D00223C3702269D37810
:1024C000DBB2D9063BD49B0637D5B023BEF11F0F34
:1024D000937043D8226904EB0E0312791A760EF139
:1024E000010E5FFA8EFE00BF00BF00BF16B1236968
:1024F00080229A7084F839E0774681E781F802807B
:10250000236980229A70774684F839E078E704EBF3
:102510000E0291F8048082F818800EF1010E5FFA25
:102520008EFEB6E781F802C021690846ADE7A82112
:1025300091702069BE460279ADE7774660E71021C9
:102540004FF49673D170013BFDD12269937803F06B
:10255000F7037746937053E78170D1E723691B79BE
:10256000C1E700BFD03AFF1F0148FFF753BD00BFCE
:10257000A407FF1F0148FFF74DBD00BF1008FF1F54
:102580000148FFF747BD00BF3807FF1F38B52822B5
:102590000C4605460846002102F0D6FF0B220949E9
:1025A000204603F035F80022E272E868064920610F
:1025B000002301250320E560626260612162A3615E
:1025C000E36138BD145C00000AD7233CF8B504462B
:1025D0000848E16000212060A160102016461F46D7
:1025E00000F08CFC3A460546314601F0C1FEA5607C
:1025F0002046F8BD245C000030B5034685B08068F5
:10260000197400230C46019300930222012303A9AD
:102610003D258DF80D408DF80C5001F0DFFE1E2099
:1026200000F016FD05B030BD2DE9F047054684B039
:1026300089468068012101F0C1FE20B90027384693
:1026400004B0BDE8F08704AC002604F8046D4FF038
:102650000108234607462146A8680196CDF8008068
:10266000424601F04DFF9DF80C30A02B12D04FF4E4
:102670007A7000F0EDFCA86801962346CDF8008042
:10268000424621468DF80C6001F03AFF9DF80C306F
:10269000A02BD3D100212846FFF7AEFF00263F2113
:1026A000A8688DF80C104FF0200E0123022221465D
:1026B000019600968DF80DE001F090FE1E2000F0CE
:1026C000C7FC4FF0010801E000F0C2FCA8680196C9
:1026D0002346CDF80080012221468DF80C6001F0E0
:1026E0000FFF9DF80C30A02B4FF0000A4FF00A00AE
:1026F000EAD1322000F0ACFC3E26A868CDF804A058
:10270000214601230222CDF800A08DF80C608DF83F
:102710000DA001F063FE0A2000F09AFC0726A868CD
:10272000CDF804A02146CDF800A0012302228DF8A7
:102730000DA08DF80C6001F051FE01230222A86863
:10274000CDF804A02146CDF800A03F248DF80DA0BF
:102750008DF80C4001F042FE0A2000F079FC494659
:102760002846FFF749FF142000F072FC384604B0F9
:10277000BDE8F087F0B5044685B00E46002100257F
:10278000077CFFF739FF192000F062FCA068019573
:102790004FF0070E009503A9012302228DF80D507A
:1027A0008DF80CE001F01AFEA068BEB93F25019635
:1027B000009603A9012302228DF80D608DF80C50BC
:1027C00001F00CFE0A2000F043FC39462046FFF7DA
:1027D00013FF142000F03CFC05B0F0BD01950095FE
:1027E0003F26802503A9012302228DF80C608DF875
:1027F0000D5001F0F3FDE5E72DE9F04184B004ACA4
:10280000352504F8045D4FF0000E012580688846E8
:10281000174621461E468DE8204023462A460A9C3C
:1028200001F06EFE9DF80C30B8F1000F02D09A094D
:1028300088F8002017B1C3F301123A7016B1C3F340
:102840008102327014B103F00303237004B0BDE8B9
:10285000F08100BF10B584B004AB342203F8042D1E
:1028600000240122806819468DE8140001F048FE1A
:102870009DF90C0004B010BDF0B50D4687B01446AC
:1028800000211822064602F05FFE06A9A86801F89A
:102890000C4D002506228DE8240004AB0122ADF882
:1028A0001450049501F02CFE9DF813709DF81550FE
:1028B0009DF811009DF810109DF812209DF814301D
:1028C00041EA002042EA072243EA0523083C00B21D
:1028D00017B21DB2262C2FD8DFE804F0142E2E2EAE
:1028E0002E2E312E2E2E2E2E312E2E2E2E2E312EFF
:1028F0002E2E2E2E2E2E2E2E2E2E2E2E142E2E2E12
:102900002E2E140001F076FF00221B4B02F002F97C
:10291000C6E90001384601F06DFF0022164B02F0B7
:10292000F9F8C6E90201284601F064FF0022124BC3
:1029300002F0F0F8C6E90401304607B0F0BD01F03E
:1029400059FF00220D4B01F0BBFFC6E900013846DC
:1029500001F050FF0022094B01F0B2FFC6E902016D
:10296000284601F047FF0022044B01F0A9FFC6E909
:102970000401304607B0F0BD000059400000B03FF0
:1029800070B5242688B00C4605463246084600211C
:1029900002F0DAFD104BE9681B680193019B23618B
:1029A00003226160A26029461A2202A82660FFF76E
:1029B00063FFDDE9020102F07BFA6061DDE90401F9
:1029C00002F076FAA061DDE9060102F071FAE06139
:1029D000012008B070BD00BFD03AFF1F30B50446DB
:1029E00083B002252A4601A8054900F039F9236879
:1029F0002A4601A95B682046984703B030BD00BF56
:102A0000385C0000F0B507468BB0002A33D0012AAD
:102A100008BF0A2251B3212400E0F4B2B1FBF2F561
:102A200002FB1511C8B2092900F1300198BFC8B2E4
:102A30000AA988BF3730214488BFC0B201F8240CEE
:102A4000661E2946002DE8D133B1013CE4B20AAB41
:102A500023442D2203F8242C3B6801AA11195B683A
:102A60003846C4F1220298470BB0F0BD30228DF8F1
:102A700025202124E8E70368C9B21B6898470BB0FA
:102A8000F0BD00BF0029BABF49422D2300230A220E
:102A9000FFF7B8BFFFFFFFFF2DE9F04357EC106BC6
:102AA00085B005460C4610EE102A3B4610EE100A83
:102AB000394602F09FF9002840F0B28027F0004923
:102AC000304649464FF0FF32594B02F093F990B926
:102AD000304649464FF0FF32554B02F06DF950B980
:102AE0002B6854495B682846032298478046404635
:102AF00005B0BDE8F0834FF060424F4B3046394699
:102B000002F06EF9002872D14FF060424B4B304614
:102B1000394602F047F9002869D1002200233046E7
:102B2000394602F03FF9002864D18146002C67D075
:102B3000434900204FF000083BA3D3E9002308F1EC
:102B4000010801F0BDFE5FFA88F39C42F4D802460A
:102B50000B463046394601F001FD0F46064602F0AD
:102B600087F9804601F036FE02460B46304639466C
:102B700001F0F2FC4B4606460F460A224146284623
:102B8000FFF740FF0F2C28BF0F2404F101092E236B
:102B900080465FFA89F98DF8003001240022294B24
:102BA0003046394601F08CFE0F46064602F060F9C9
:102BB00004AB2344C0B200F1300203F8102C01F042
:102BC00019FE02460B463046394601F0C5FC013479
:102BD000E4B24C4506460F46E0D12B6822465B68BE
:102BE000284669469847404605B0BDE8F0832B6803
:102BF000154977E707F100431F464FF0010995E7B4
:102C000000220F4B3046394601F0A8FC02F030F9A3
:102C10004B4601460A222846FFF7F4FE804666E747
:102C20002B680A495EE700BF000000A09999B93FF0
:102C3000FFFFEF7F445C0000FFFFEF41FFFFEFC1AC
:102C40000000E03F00002440405C00003C5C0000CD
:102C500008B5FDF717FFFEF7CDF801F019FAFAE70E
:102C600001B441EA000313F003036FD1403A41D3AA
:102C700051F8043B40F8043B51F8043B40F8043B56
:102C800051F8043B40F8043B51F8043B40F8043B46
:102C900051F8043B40F8043B51F8043B40F8043B36
:102CA00051F8043B40F8043B51F8043B40F8043B26
:102CB00051F8043B40F8043B51F8043B40F8043B16
:102CC00051F8043B40F8043B51F8043B40F8043B06
:102CD00051F8043B40F8043B51F8043B40F8043BF6
:102CE00051F8043B40F8043B51F8043B40F8043BE6
:102CF000403ABDD2303211D351F8043B40F8043B86
:102D000051F8043B40F8043B51F8043B40F8043BC5
:102D100051F8043B40F8043B103AEDD20C3205D395
:102D200051F8043B40F8043B043AF9D204320AD08B
:102D3000D2071CBF11F8013B00F8013B03D30B780D
:102D400003704B78437001BC704700BF0C2A4AD314
:102D500010F0030311D0C3F10403D21ADB071CBF28
:102D600011F8013B00F8013B07D311F8013B00F8D3
:102D7000013B11F8013B00F8013B11F003033FF464
:102D800075AF30B4043AC91AC3F1040C51F8044BBE
:102D9000022B19D0032B0BD0240A51F8043B1D063B
:102DA00044EA050440F8044B1C46043AF4D216E009
:102DB000240E51F8043B1D0244EA050440F8044B7C
:102DC0001C46043AF4D20AE0240C51F8043B1D04DA
:102DD00044EA050440F8044B1C46043AF4D2043299
:102DE000B1EB0C0130BC043AA0D3013A11F8013B1D
:102DF00000F8013BF9D20B7803704B7843708B7865
:102E0000837001BC704700BF08B5104C08E0236810
:102E100059050DD423681A050FD42368DB0411D497
:102E200023685803F3D500F0D3FA23685905F1D588
:102E300000F00EF823681A05EFD500F009F82368B2
:102E4000DB04EDD500F004F8EAE700BF348004406D
:102E500008B5FFF7D9FF00BF014B10221A80704759
:102E600000200540704700BF094908B50B6830B124
:102E70006A461844A2F50052904202D208601846F1
:102E800008BD02F06BF80C2303604FF0FF3008BD63
:102E90007C08FF1F084A1378802B01D00020704760
:102EA0000649074B07480860002119701378802BEA
:102EB000FCD00120704700BF03E00740448004407D
:102EC00001E0074000002822094A1378012B01D0B5
:102ED0000020704703F1804303F5FC236021197043
:102EE0001378802BFCD1034B034A1A6001207047F2
:102EF00003E00740448004400000060202F05CB892
:102F000002F062B8F0B44D1E2E46002400E00134F9
:102F1000B0FBF2F302FB1300092800F130078ABF6F
:102F20003730F8B2C0B206F8010F1846002BEED1C8
:102F30000A1953704CB1107815F8016F28700133DD
:102F4000E01A834202F80169F5DB0846F0BC7047DD
:102F500010B4114B53F8302092F8804234B1012361
:102F600079B182F880305DF8044B704703EBC00301
:102F70005B681A6851B922F002021A605DF8044BCE
:102F8000704782F800315DF8044B704742F003024D
:102F90001A605DF8044B7047485C00001C4A02EB65
:102FA000C00301295B6811D004291BD052F83000FE
:102FB000002280F8802229B1022920D0032922D0C2
:102FC0001A6070474FF480721A60704752F83000F0
:102FD0004FF4A27280F880121A601A6822F0200260
:102FE0001A60704752F830104FF4A272012081F835
:102FF00080021A601A6842F020021A60704740F29C
:1030000003121A6070474FF481721A60704700BF54
:10301000485C000030B4054B054D064C00221021E1
:103020001A602A602060196030BC704714D00340D9
:1030300004D0034000D003403F2801D8FFF788BFE9
:10304000704700BF3F2801D8FFF7A8BF704700BFF7
:103050002DE9F843054672B6224F234B234A1B68DD
:103060003C68126862B6520102D5322B88BF013427
:10307000B5B3C3F52F3303F21F331D4EDFF868904D
:10308000DFF868809B084FF47A72A6FB031302FBFB
:1030900004F404EB930472B6D9F800103A68D8F837
:1030A00000E062B6C1F52F3303F21F339B08A6FB85
:1030B00003031EF0806FC4EB93034FF47A7002D0C9
:1030C000322988BF013200FB0233B3F57A7F04D383
:1030D000013D05D004F57A74DDE700F0D9FFDAE7A9
:1030E000BDE8F883D03AFF1F18E000E004ED00E0EF
:1030F000176CC116F8B54E4B4E48DFF85CC14E4C0C
:103100004E49DFF858E14E4E4E4D4F4F4FF00062A2
:103110001A604FF080521A604FF000521A604FF060
:1031200080421A604FF000421A6000220260282399
:103130004EF6FF70CCF80000CEF8003023600EF59C
:10314000012E0B6033602B6006F500263B6005F511
:103150000025A36207F500278B6204F5012401F521
:10316000012106F6E87605F6E87507F57F67103168
:103170000EF1100E203433602B60CEF800303B602F
:103180000B602360314CBB618B6109212160A7F585
:10319000002704F58054203F08343A602060BB606B
:1031A000E36047F8041C04F5FD2407F5FE27043707
:1031B00004F2FC7422603860A360FB6044F8041CD5
:1031C000083404F6FC74C7F8FC2F2060A4F5E12451
:1031D000A4F2DC7433602B60C7F8F81F21681C4828
:1031E00041F40071216001681A4C0EF57F4E0EF11A
:1031F000E80E07F5883706F5803605F5803541F08D
:1032000000710160CEF8002047F6FF710822396096
:1032100033602B60226000F0DDFF1920FFF718FFFC
:1032200000F010FD40F21310BDE8F840FFF710BFAA
:1032300004E100E004800340148003401C8003404C
:10324000248003402C8003403480034000800340EE
:103250000480044000900C40088003400C80034030
:10326000431E032B14D872B60A4951F8230068B1E3
:1032700070B4094C058834F81320466841F823607F
:10328000521B24F8132062B670BC704762B67047B8
:10329000002070472C3BFF1F343CFF1F01380328E0
:1032A0000BD872B6074B53F8203043B100205B684F
:1032B0000130002BFBD162B67047002070471846E2
:1032C000F9E700BF803BFF1FF0B472B61A491B4EEE
:1032D000012311F8014B194F9A00240742F0010510
:1032E00005D556F8324064B156F83520BAB10133ED
:1032F000052BEED162B6124B00221A70F0BC00F022
:1033000037BD0F4C0F4D217807EB431308300139BF
:103310005860217047F8325062B6F0BC7047084AD6
:103320000949137807EBC5040830013B606013704E
:1033300047F8351062B6F0E7705E00000000FF1F2E
:10334000A93BFF1F88004000C8004000431E032B1C
:103350001DD81B4A400140F0100030B4104472B632
:10336000184CE25C032A1BD8DFE802F002121517A2
:1033700003220D88E25410F0080F14BFC8238823DD
:1033800043EA054308314160036062B630BC7047D0
:1033900008300222EDE70522EBE708300422E8E7D7
:1033A000094A52F8230038B1084A52F82300416014
:1033B00042F8231062B6E9E742F82310034AF7E720
:1033C0000000FF1FB83BFF1F803BFF1F903BFF1F0C
:1033D0002DE9F04FDFF814B3DFF814A387B044E011
:1033E000AD4F4FEA930807EBC809013ED9F8042016
:1033F00003F00803F6B2A2F1080003F0FF04002B6B
:1034000040F0038157F838301B0C99B222F8081CA1
:10341000002B00F0F180A14B22F8064C42F8044C3E
:1034200053F82620002A00F06C819D4D55F8263077
:1034300058609C4C45F8260034F81630194424F89E
:10344000161000F075FC002800F05481964A974B46
:1034500019F0080F00F1080018BF1346C9F804005E
:1034600047F8383008238BF800309BF80040E4B26E
:1034700060071BD58E4B1B78ABB18E490A7802F0E2
:10348000FF032AB1013BDBB20B70002B00F0B583C8
:1034900089490A7802F0FF032AB1013BDBB20B70C5
:1034A000002B00F0F68004238BF8003004F00803B2
:1034B00003F0FF02002B00F0D5809AF80030DBB259
:1034C0001E098DD19C08744F57F8342007EBC401B6
:1034D000C2F38302013A49680C2A7ED8DFE802F081
:1034E00081817D7D7D7D7D7D427D7D7D07000868BC
:1034F000724B734D01936C4B4A68724E47F83430EF
:1035000081B240F281646D4B6A6028600022012024
:10351000A1423A611A60BA61307000F2F680B1F5EA
:10352000D06F80F0E882B1F5817F00F0D38200F2A5
:10353000D881802900F04D81822940F09282A988AB
:10354000614B01F07F01042900F28C825F4C8900FD
:103550000B44227062701A78930740F13883207010
:1035600002203AE1554B01931A6862B3584B59490E
:10357000544E18880C7896F800E04028054684F0F0
:10358000010C28BF402544F00204BEF1000F81F871
:1035900000C0A0EB050007EBC40C0CBF8821C821BC
:1035A00080B28EF0010E41EA0541CCF8042018806B
:1035B00086F800E02A4447F8341010B9402D18BFAF
:1035C0000022019B1A603E4B1A88B2F5A06F04D10D
:1035D00000219A785970404B1A70404A01231370A9
:1035E00040E7374A158842F22100854200F05281B7
:1035F0002D4A47F83420F0E72B4A2C4B19F0080FDE
:1036000018BF134647F838302CE700F0B1FB344AB6
:10361000344952F82630002B00F02D8158688C5D1B
:1036200042F8260003F10802C9F80420032C05D84B
:10363000DFE804F0120F150204228A551A8819F0E7
:10364000080F0CBF8823C82343EA024347F83830E9
:1036500008E702228A55F1E703228A55EEE70522A0
:103660008A55EBE7E00700F17881210600F1A2819D
:10367000A20706D51C4A1D4913780220DBB213703D
:103680000870E30602D5194B10221A7007B0BDE886
:10369000F08F00F0D9FC06E70000FF1F2C3BFF1F56
:1036A000D83AFF1F343CFF1FC8004000880040008C
:1036B000B43BFF1F3D3BFF1FBC3BFF1FD43AFF1F26
:1036C000A03BFF1F3C3BFF1FC0200740AC3BFF1F40
:1036D000E83AFF1FA83BFF1F9820074094200740AF
:1036E000803BFF1FB83BFF1F88200740802007401A
:1036F00090200740B74A47F8380013780133137019
:10370000B0E643F82600B44D93E642F22104A1420C
:1037100000F0AD8000F20E81B1F5086F00F0548129
:10372000B1F5106F40F09D81AC4AA9781170AC4D95
:10373000042402E00134142C0CD057F8343019065C
:10374000F8D505EBC40301345868083800F010FBC5
:10375000142CF2D1A349A44BA44A0291A449A54C2C
:103760009D4D039405964FF0000988461C46164669
:103770000495206828B1456800F0FAFA2846002D23
:10378000F9D100232360049B30681A46002342F8D5
:10379000293028B1456800F0EBFA2846002DF9D110
:1037A00000223260029A98F800301146002241F857
:1037B000042B039A0291023B4FF0000122F81910EA
:1037C000032B00F2B481DFE813F0E201AE01E20165
:1037D000AE01894C022022706270EA88824280F039
:1037E0000D8286490D78402A45F0020E944607EB7B
:1037F000CE0028BF4FF0400C04EB0C034460029352
:10380000CCEB02004FEA0C484FF001090022C8241B
:1038100044EA080385F0010447F83E3032700C702A
:10382000DFF8BCE1764BDFF8D481002840F020813E
:10383000BCF1400F1BD144F0020407EBC403029F0C
:10384000DFF89CE15F60002A40F02781020442F02B
:10385000880286F800900D7007444EF834203B46ED
:10386000402804D10020674A019910800B60664A05
:1038700001231370B1E68B5D032B00F2248101A2BA
:1038800052F823F06534000065340000A9390000C7
:10389000AF390000928862B95C4ACD1D11F8013B36
:1038A00002F8013F8D42F9D1594A1268862A00F088
:1038B000C9805249524E0878327840F0020580F0B3
:1038C0000100087007EBC501002A4FF000004860B6
:1038D00082F001020CBF8821C82147F835103270F0
:1038E00086E640F20232914240F0B080A98801F0B1
:1038F0007F01042900F2B5806A88002A40F0B18077
:10390000444C89000C448146217841F00201217029
:103910000020029080468446044638490D7845F0E0
:10392000020E07EBCE03B9F1000F5C600CBF8824D8
:10393000C8246DE742F22124A14240F08E80A9887C
:10394000002940F04281344B344A354C1B68AD7835
:10395000136081460A462570DAE72B49204B31482F
:10396000264EDFF8B0C0304DDFF8D4E02F4F0224F0
:103970000C702F4C18605C6098602E48D8601A61FB
:103980009A610D2332702C4C8CF800302B4EFF23A3
:103990002B7001209F258EF800303A70337025700F
:1039A000087007B0BDE8F08F00238B555AE501235E
:1039B0008B5557E51749224B80220D2008701A704D
:1039C000A2077FF55EAE55E6044A0B4C12782270D2
:1039D00003E700BFA93BFF1FD83AFF1FB43BFF1FFF
:1039E0000000FF1F903BFF1F2C3BFF1F803BFF1F72
:1039F000B83BFF1F343CFF1FAC3BFF1FA83BFF1F22
:103A00003C3BFF1FE83AFF1F942007403B3CFF1F51
:103A10003C3CFF1FC0200740D03AFF1F443CFF1F23
:103A2000CC3BFF1F880040008820074098200740BB
:103A3000EC3AFF1F403BFF1F842007408C200740CB
:103A400080200740754A0F21117032E7B1F5A06F51
:103A500007D100224FF001095AE742F22132914288
:103A6000F7D06F4B0F221A706E4A01231370B4E522
:103A700040287FF6E0AE44F002040EEBC401029E43
:103A80004E60AAB183F80090674A88F80050334628
:103A9000403840334EF83420E5E6029B86F800902B
:103AA000020442F0C8020D7003444EF83420D7E6F9
:103AB00083F80090029B5D4A88F8005040384033FC
:103AC0004EF83420CFE619F0080F0CBF0223032371
:103AD0008B55C7E4A98801F07F010429C1D86A8801
:103AE000002ABED14E4C89000C448146217821F039
:103AF000020121700CE74E4A5468002CB1D068884E
:103B0000B5F804E003E00C325468002CA9D0138807
:103B10008342F8D153887345F5D1000A03280CBFBE
:103B20002078108959E64FF0010388F8003009F138
:103B30000109B9F1040F04F1040406F1040608F1C7
:103B400001087FF416AE3B4B059E3B4DDFF8F0803D
:103B5000002018704FF0010918F8013B05F8043BEC
:103B60001A0719D44FEA890444F0020244F003040E
:103B7000002347F8323047F83430304B9D4209F18A
:103B80000109E9D196F8009089F00102C0E64FF0F2
:103B9000000388F80030CAE700F0CAF818B307EB52
:103BA00049134FEA890408305860204B47F83430F5
:103BB00000F0BEF868B144F0010307EBC30208301F
:103BC0005060194A47F83320CEE78146A0E602202C
:103BD00003E6184B44F001021B7847F83200154AFF
:103BE00001331370C0E7134B124A1B784FEA890464
:103BF000013347F834001370DAE700BE40288446EA
:103C000028BF4FF0400C04EB0C03CCEB00004FEA54
:103C10000C48029300224FF001097EE63D3BFF1F56
:103C2000C020074094200740C800400088004000A2
:103C3000745E0000A93BFF1FC4200740D42007404A
:103C4000705E0000F8B500F037FB002324491A46E7
:103C500001EBC30041F833200133142B42604FF0D5
:103C600000041F48F4D11F491F4A0B68DFF890C0B9
:103C70001E4E1F4F1F4DDFF88CE043F480230B6076
:103C8000136843F04073136003238CF8003001F590
:103C90002831A02333707C3102F5C922C0F30723F9
:103CA0003B701032C0F307430B70000EFF232870E7
:103CB0008EF80030104D0CF8BC3C104813700123F6
:103CC00006F8AC3C81F8504070264FF400141021E7
:103CD00007F8183C2E70046082F8F810F8BD00BF99
:103CE0000000FF1F3480044000D8004040210740FE
:103CF0009C200740B420074035E400E004E100E0E8
:103D0000442107408020074000F0A2B800F07AB8B4
:103D100000F054B800F08EB800F06AB900F044B971
:103D20000846114600F0B0B8084600F031B900BFAF
:103D300072B60D480268B2FA82F30B2B10DC4FF01A
:103D40000041D94022EA0102026062B6074803EB53
:103D5000C303DB00C2180021C150104651607047F8
:103D600062B60020704700BF9008FF1FD003FF1FFE
:103D70000D4B0E4AC31AA2FB03231B090B2B0CD8B5
:103D80000B4A127852B972B60A484FF000410268E5
:103D900021FA03F31A43026062B67047064A1278AA
:103DA000002AF0D0FFF790BAD003FF1F398EE33816
:103DB000A93BFF1F9008FF1FB43BFF1F38B50F4DF5
:103DC000286878B143880288C118013393420C7A7D
:103DD00002D24380204638BDFFF7CAFF00232046A9
:103DE0002B6038BD064B1B782BB10320FFF738FA48
:103DF00028600028E6D14FF0FF3038BDC83BFF1FD8
:103E0000B43BFF1F10B5094C206818B14388184413
:103E1000007A10BD064B1B782BB10320FFF720FA68
:103E200020600028F2D14FF0FF3010BDC83BFF1FCB
:103E3000B43BFF1F044B054A1B6890881BB11A88CE
:103E40005B88D31A18447047C83BFF1F343CFF1FE0
:103E50000B4B1B789BB110B50A4C206848B1FFF79B
:103E600087FF002303202360FFF7FAF930B1FFF743
:103E70007FFF0320FFF7F4F90028F8D110BD704749
:103E8000B43BFF1FC83BFF1F2DE9F04FDFF8F89050
:103E900083B0012289F80020019169B3DFF8EC803A
:103EA000354F019E8346D8F80000B0B3334D4488A7
:103EB000C4F14001B14228BF314604EB010E00229B
:103EC0001FFA8EFE2A70761AA0F802E000F10802AE
:103ED00051B1013C224459441BF8014B02F8014FF7
:103EE0008B45F9D1B0F802E0BEF13F0F0BD8244A60
:103EF00005211170002ED6D10198002389F80030D9
:103F000003B0BDE8F08F4022028001460420FFF795
:103F10001DFA0022C8F80020E9E73A7822B3194CCC
:103F2000164D4FF0010A07E0013C16D02A78A2B9DD
:103F300000F0AEF83A78BAB10420FFF7AFF90728DD
:103F4000F2D889F800A0FFF7F3FEC8F800000028B7
:103F5000ADD10D4B013C1870E8D101234FF0FF307B
:103F60002B7003B0BDE8F08F00234FF0FF3089F8CD
:103F7000003003B0BDE8F08FB43BFF1FC43BFF1F10
:103F8000BC3BFF1F21480100BD3BFF1FC03BFF1F83
:103F900000B583B002AB012103F8010D1846FFF70D
:103FA00073FF03B05DF804FB38B50E4D0E4C286866
:103FB0000123237028B1408800232370C0F1400002
:103FC00038BD0A4B1B7813B90020207038BD04207F
:103FD000FFF764F90728F7D8FFF7AAFE2860002842
:103FE000E9D1F1E7C03BFF1FBD3BFF1FB43BFF1F03
:103FF000F8B5114B1B788BB1104E114D3468012769
:104000002F7064B10F4A6388002717702146238000
:104010000420FFF79BF9376000232B70F8BDFFF7F2
:1040200087FE084B28B1014604201C70FFF78EF96B
:10403000F2E71F70F0E700BFB43BFF1FC03BFF1F5C
:10404000BD3BFF1FBC3BFF1F38B50E4B1B7873B940
:104050000D4C216861B103F0FF054B880B800420F3
:10406000FFF774F9256038BD084B01221A7038BD7E
:10407000FFF75EFE0028F7D00146BDE83840042077
:10408000FFF764B9BD3BFF1FC03BFF1FBC3BFF1FD9
:104090002DE9F843314E337893B1314F3A787AB9FC
:1040A0000122D9073A7036D49A0719D400225B0747
:1040B0003A7005D52B4B1A6812B1EFF305820AB19D
:1040C000BDE8F883EFF3108172B6186818B1264C7A
:1040D0002278002A2ED00029F2D162B6BDE8F883FA
:1040E000DFF8908098F80020002ADFD0DFF8889071
:1040F000002405E0013498F80030E4B2A34212D95C
:1041000059F824502B6828461B6998470028F1D09D
:104110002B699847EEE7FFF78DFEC8B9134B1B7864
:104120001BB93378C0E73378C0E7337803F0FE0378
:104130003370B9E745691D60012323705DB1AA6141
:1041400001B962B600254577836898472570B7E7BF
:1041500000F0B0F8E2E7064B1D60F1E79408FF1F9E
:10416000CD3BFF1FDC3BFF1FE03BFF1F9708FF1FFE
:10417000D83BFF1FFC3BFF1FE43BFF1F70B5EFF375
:10418000108272B60C4C206880B10C4E0025436939
:10419000236073B19D6102B962B645778368984721
:1041A000EFF3108272B620680028F0D102B962B62F
:1041B00070BD3360EFE700BFD03BFF1FD43BFF1F54
:1041C000FFF7DCBF024A136801331360704700BF7A
:1041D000D03AFF1F30B42948294A2A4B2A4D60247F
:1041E000E121047011701B78284C082B30D00A2B69
:1041F0002748284937D00C2B0CBF35225D221223CB
:104200002A60236002600B60234B24491B78244AF8
:10421000BBB101230B601360224B23491B78234A57
:10422000012B26D9042B0FD9082B1ED9102B94BF94
:10423000862387230B6013601D4B01221A7030BC4C
:1042400070470B601360E7E784230B601360F3E7AC
:1042500000F58E200F490830212213232A602360A5
:1042600002600B60D0E73922F7E785230B6013600B
:10427000E2E780230B601360DEE700BF00400740E9
:10428000014007409508FF1F08B003400CB00340F1
:1042900008B00B400CB00B40FE3BFF1F20B00340AA
:1042A00020B00B409608FF1F24B0034024B00B4001
:1042B000FD3BFF1F704700BF10B584B072B6FEF71C
:1042C000E9FD184A184B19491160702280211A70B3
:1042D0001A46197013781B06FCD5154B1C68FEF79F
:1042E000F3FD62B6134B9C429CBF04EB8404640054
:1042F0002046114C01A90A22FEF704FE01A920461E
:10430000002311F8012B01333AB10A2B20F8022FB8
:10431000F7D11623237004B010BD5B00DBB223700D
:1043200004B010BD0400024000000240000007413C
:104330000C0002407F9698002409FF1F0B4601469F
:10434000184600F005BE00BF70B5044640681E4622
:1043500003685B6815469847854201D0002070BD10
:1043600031466068FDF764FFB0FA80F0400970BD27
:1043700030B4002520240572C4600170426030BC56
:10438000704700BF037A10B5044683B12278636892
:104390000121520083F83B2083F85E1083F85D1002
:1043A0006068FDF745FFB0FA80F0400910BD0121BB
:1043B00000F004F80028E9D110BD00BF38B504466C
:1043C00040680D46FDF7DCFD0120207205B938BDBF
:1043D0002046BDE83840FFF7D5BF00BF2DE9F041CA
:1043E000079EC468DDF818E09519A54219D815464E
:1043F0000278984643680F4652000121044683F82C
:104400003B2083F85E1083F85D106EB1BEF1000FA3
:104410000AD04068036871465B6832469847864216
:1044200002D00020BDE8F08143462A4639462046A6
:10443000BDE8F041FFF788BF2DE9F843164607466F
:104440008846D2B201784068FDF77CFF864202D0F0
:104450000020BDE8F88336B30023DFF854901C46F3
:1044600012E090F8383090F839209A4203F1010EAA
:1044700000EB03011AD980F838E0087E2870013477
:10448000A4B2A64223460ED97868026852694A450A
:1044900008EB0305E5D090470134A4B2C0B2A642B0
:1044A00028702346F0D80120BDE8F883FF20E5E717
:1044B000E11E00000AB32DE9F843164699468846E6
:1044C0000746002401E0A64214D9FD68331B9D4233
:1044D00028BF1D46731BA34294BF4B46002308EB25
:1044E00004012A463846FFF7A7FF2C440028EAD1EA
:1044F000BDE8F8830120BDE8F8830120704700BFC4
:104500002DE9F041C568069F9DF81C60AA4202D9BA
:104510000020BDE8F08190F800C0D0F804E04FF032
:1045200001084FEA4C0C1D468EF83BC033468EF80E
:104530005E808EF85D800446FFF706FF0028E7D016
:1045400043463A4629462046BDE8F041FFF7B2BF50
:1045500081F0004102E000BF83F0004330B54FEA34
:1045600041044FEA430594EA050F08BF90EA020FA1
:104570001FBF54EA000C55EA020C7FEA645C7FEA34
:10458000655C00F0E2804FEA5454D4EB5555B8BF57
:104590006D420CDD2C4480EA020281EA030382EAC8
:1045A000000083EA010180EA020281EA0303362D5A
:1045B00088BF30BD11F0004F4FEA01314FF4801C2D
:1045C0004CEA113102D0404261EB410113F0004F3F
:1045D0004FEA03334CEA133302D0524263EB4303F6
:1045E00094EA050F00F0A780A4F10104D5F1200E94
:1045F0000DDB02FA0EFC22FA05F2801841F10001EF
:1046000003FA0EF2801843FA05F359410EE0A5F1C2
:1046100020050EF1200E012A03FA0EFC28BF4CF0F3
:10462000020C43FA05F3C01851EBE37101F00045A9
:1046300007D54FF0000EDCF1000C7EEB00006EEBB6
:104640000101B1F5801F1BD3B1F5001F0CD3490840
:104650005FEA30004FEA3C0C04F101044FEA445297
:1046600012F5800F80F09A80BCF1004F08BF5FEA1E
:10467000500C50F1000041EB045141EA050130BDFE
:104680005FEA4C0C404141EB010111F4801FA4F1A1
:104690000104E9D191F0000F04BF01460020B1FAF6
:1046A00081F308BF2033A3F10B03B3F120020CDA2E
:1046B0000C3208DD02F1140CC2F10C0201FA0CF00C
:1046C00021FA02F10CE002F11402D8BFC2F1200C71
:1046D00001FA02F120FA0CFCDCBF41EA0C01904027
:1046E000E41AA2BF01EB0451294330BD6FEA040470
:1046F0001F3C1CDA0C340EDC04F11404C4F120025B
:1047000020FA04F001FA02F340EA030021FA04F36C
:1047100045EA030130BDC4F10C04C4F1200220FAC3
:1047200002F001FA04F340EA0300294630BD21FA01
:1047300004F0294630BD94F0000F83F4801306BFC7
:1047400081F480110134013D4EE77FEA645C18BFBB
:104750007FEA655C29D094EA050F08BF90EA020F52
:1047600005D054EA000C04BF1946104630BD91EA4A
:10477000030F1EBF0021002030BD5FEA545C05D14D
:104780004000494128BF41F0004130BD14F580048C
:104790003CBF01F5801130BD01F0004545F0FE4100
:1047A00041F470014FF0000030BD7FEA645C1ABF35
:1047B000194610467FEA655C1CBF0B46024650EA6C
:1047C000013406BF52EA033591EA030F41F4002198
:1047D00030BD00BF90F0000F04BF0021704730B51E
:1047E0004FF4806404F132044FF000054FF00001F3
:1047F00050E700BF90F0000F04BF0021704730B5B4
:104800004FF4806404F1320410F0004548BF404288
:104810004FF000013EE700BF42004FEAE2014FEADD
:1048200031014FEA02701FBF12F07F4393F07F4FB8
:1048300081F06051704792F0000F14BF93F07F4FEA
:10484000704730B54FF4607401F0004521F000412D
:1048500020E700BF50EA010208BF704730B54FF0B3
:1048600000050AE050EA010208BF704730B511F0B8
:10487000004502D5404261EB41014FF4806404F1F0
:1048800032045FEA915C3FF4DCAE4FF003025FEA72
:10489000DC0C18BF03325FEADC0C18BF033202EBFA
:1048A000DC02C2F1200300FA03FC20FA02F001FA54
:1048B00003FE40EA0E0021FA02F11444C1E600BFF3
:1048C00070B54FF0FF0C4CF4E06C1CEA11541DBFA6
:1048D0001CEA135594EA0C0F95EA0C0F00F0DEF871
:1048E0002C4481EA030621EA4C5123EA4C5350EA56
:1048F000013518BF52EA033541F4801143F48013A7
:1049000038D0A0FB02CE4FF00005E1FB02E506F037
:104910000042E0FB03E54FF00006E1FB03569CF08C
:10492000000F18BF4EF0010EA4F1FF04B6F5007F92
:1049300064F5407404D25FEA4E0E6D4146EB060604
:1049400042EAC62141EA55514FEAC52040EA5E508D
:104950004FEACE2EB4F1FD0C88BFBCF5E06F1ED837
:10496000BEF1004F08BF5FEA500E50F1000041EB6E
:10497000045170BD06F0004646EA010140EA02001B
:1049800081EA0301B4EB5C04C2BFD4EB0C0541EA3D
:10499000045170BD41F480114FF0000E013C00F352
:1049A000AB8014F1360FDEBF002001F0004170BD76
:1049B000C4F10004203C35DA0C341BDC04F114048F
:1049C000C4F1200500FA05F320FA04F001FA05F21B
:1049D00040EA020001F0004221F0004110EBD370E8
:1049E00021FA04F642EB06015EEA430E08BF20EA14
:1049F000D37070BDC4F10C04C4F1200500FA04F3B7
:104A000020FA05F001FA04F240EA020001F0004148
:104A100010EBD37041F100015EEA430E08BF20EABB
:104A2000D37070BDC4F1200500FA05F24EEA020E03
:104A300020FA04F301FA05F243EA020321FA04F032
:104A400001F0004121FA04F220EA020000EBD370E9
:104A50005EEA430E08BF20EAD37070BD94F0000FE9
:104A60000FD101F00046400041EB010111F4801F1D
:104A700008BF013CF7D041EA060195F0000F18BFCE
:104A8000704703F00046520043EB030313F4801F0A
:104A900008BF013DF7D043EA0603704794EA0C0FC4
:104AA0000CEA135518BF95EA0C0F0CD050EA4106DA
:104AB00018BF52EA4306D1D181EA030101F0004157
:104AC0004FF0000070BD50EA410606BF104619467F
:104AD00052EA430619D094EA0C0F02D150EA01368B
:104AE00013D195EA0C0F05D152EA03361CBF1046CC
:104AF00019460AD181EA030101F0004141F0FE416B
:104B000041F470014FF0000070BD41F0FE4141F4EE
:104B1000780170BD70B54FF0FF0C4CF4E06C1CEAEE
:104B200011541DBF1CEA135594EA0C0F95EA0C0FA3
:104B300000F0A7F8A4EB050481EA030E52EA03355E
:104B40004FEA013100F088804FEA03334FF080557F
:104B500045EA131343EA12634FEA022245EA1115AC
:104B600045EA10654FEA00260EF000419D4208BF5D
:104B7000964244F1FD0404F5407402D25B084FEA0A
:104B80003202B61A65EB03055B084FEA32024FF4B6
:104B900080104FF4002CB6EB020E75EB030E22BF13
:104BA000B61A754640EA0C005B084FEA3202B6EBD3
:104BB000020E75EB030E22BFB61A754640EA5C0082
:104BC0005B084FEA3202B6EB020E75EB030E22BF12
:104BD000B61A754640EA9C005B084FEA3202B6EB13
:104BE000020E75EB030E22BFB61A754640EADC00D2
:104BF00055EA060E18D04FEA051545EA16754FEA34
:104C000006164FEAC30343EA52734FEAC2025FEA51
:104C10001C1CC0D111F4801F0BD141EA00014FF0E0
:104C200000004FF0004CB6E711F4801F04BF0143B1
:104C30000020B4F1FD0C88BFBCF5E06F3FF6AFAECD
:104C4000B5EB030C04BFB6EB020C5FEA500C50F15D
:104C5000000041EB045170BD0EF0004E4EEA1131E0
:104C600014EB5C04C2BFD4EB0C0541EA045170BDE7
:104C700041F480114FF0000E013C90E645EA060E2B
:104C80008DE60CEA135594EA0C0F08BF95EA0C0F59
:104C90003FF43BAF94EA0C0F0AD150EA01347FF4A1
:104CA00034AF95EA0C0F7FF425AF104619462CE778
:104CB00095EA0C0F06D152EA03353FF4FDAE1046DB
:104CC000194622E750EA410618BF52EA43067FF42C
:104CD000C5AE50EA41047FF40DAF52EA43057FF4BC
:104CE000EBAE12E74FF0FF3C06E000BF4FF0010CC7
:104CF00002E000BF4FF0010C4DF804CD4FEA410C2B
:104D00007FEA6C5C4FEA430C18BF7FEA6C5C1BD0F7
:104D100001B050EA410C0CBF52EA430C91EA030F78
:104D200002BF90EA020F0020704710F1000F91EAD5
:104D3000030F58BF994208BF90422CBFD8176FEAA3
:104D4000E37040F0010070474FEA410C7FEA6C5C71
:104D500002D150EA013C07D14FEA430C7FEA6C5C78
:104D6000D6D152EA033CD3D05DF8040B704700BFA4
:104D70008446104662468C461946634600E000BFF2
:104D800001B5FFF7B7FF002848BF10F1000F01BDC4
:104D90004DF808EDFFF7F4FF0CBF012000205DF88F
:104DA00008FB00BF4DF808EDFFF7EAFF34BF012014
:104DB00000205DF808FB00BF4DF808EDFFF7E0FFAD
:104DC00094BF012000205DF808FB00BF4DF808EDFE
:104DD000FFF7CEFF94BF012000205DF808FB00BF65
:104DE0004DF808EDFFF7C4FF34BF012000205DF847
:104DF00008FB00BF4FEA410C7FEA6C5C02D150EA2D
:104E0000013C0AD14FEA430C7FEA6C5C02D152EAC2
:104E1000033C02D14FF0000070474FF00100704793
:104E20004FEA410212F5001215D211D56FF47873D2
:104E3000B3EB625212D94FEAC12343F0004343EA75
:104E4000505311F0004F23FA02F018BF4042704750
:104E50004FF00000704750EA013005D111F00040DA
:104E600008BF6FF0004070474FF00000704700BF70
:104E70004A0011D212F5001211D20DD56FF47873D9
:104E8000B3EB62520ED44FEAC12343F0004343EA2E
:104E9000505323FA02F070474FF00000704750EA79
:104EA000013002D14FF0FF3070474FF000007047E3
:104EB0004FEA4102B2F1E04324BFB3F5001CDCF13C
:104EC000FE5C0DD901F0004C4FEAC0024CEA507074
:104ED000B2F1004F40EB830008BF20F001007047A3
:104EE00011F0804F21D113F13872BCBF01F00040A6
:104EF000704741F480114FEA5252C2F11802C2F1D8
:104F0000200C10FA0CF320FA02F018BF40F0010058
:104F10004FEAC1234FEAD32303FA0CFC40EA0C000A
:104F200023FA02F34FEA4303CCE77FEA625307D147
:104F300050EA01331EBF4FF0FE4040F4400070477E
:104F400001F0004040F0FE4040F40000704700BF18
:104F500013460A460146022000F08EBB014B18683A
:104F6000704700BF680DFF1F70B50F4E0F4D761BC9
:104F7000B61018BF002405D0013455F8043B9847FB
:104F8000A642F9D10A4E0B4D761B00F09FFFB610DA
:104F900018BF002406D0013455F8043B9847A642B8
:104FA000F9D170BD70BD00BFD85E0000D85E0000B2
:104FB000E45E0000D85E0000024B0146186800F075
:104FC0000BB800BF680DFF1F024B0146186800F0C8
:104FD00017BC00BF680DFF1F2DE9F04F01F10B0555
:104FE000162D83B0064640F29F8035F0070500F18C
:104FF000BF80A94200F2BC8000F0F4FAB5F5FC7F56
:10500000C0F09C826B0A00F0BA80042B00F283810E
:10501000A80900F1390E4FEA4E033830C44F07EBB0
:105020008303A3F108015C68A14207D1ACE0002A28
:1050300080F2AC80E468A14200F0A680636823F0AF
:1050400003035A1B0F2AF2DDB9493C6901F1080E2E
:10505000744500F0B381636823F003035A1B0F2AE1
:1050600000F39981002AC1F814E0C1F810E080F241
:105070009E80B3F5007F80F06781DB0803F1010CAF
:1050800001229B1002FA03F34A6851F83C80C4F8ED
:10509000088001EBCC091A43A9F10803E3604A60D8
:1050A00041F83C40C8F80C40831001249C409442D5
:1050B00000F28A80144206D120F0030064001442FA
:1050C00000F10400FAD007EBC009CC468046DCF8BA
:1050D0000C108C4507D173E1002A80F28181C968E8
:1050E0008C4500F06D814B6823F003035A1B0F2A97
:1050F000F2DD0C46D1F80CC054F8088F4B1945F07E
:1051000001054D6042F00101C8F80CC03046CCF8F2
:1051100008807B613B61C3F80CE0C3F808E059608C
:105120009A5000F061FA1FE0102921D800F05AFAD5
:105130001025062302207E4F07EB8303A3F108020C
:105140005C68944200F045816368E168A56823F0DB
:105150000303234430465A68E96042F001028D603F
:105160005A6000F041FA0834204603B0BDE8F08FE1
:1051700000240C232046336003B0BDE8F08F802369
:105180004FF0400E3F2049E770465DE72344E16859
:105190005A68A56842F00102E96030468D605A60A5
:1051A00000F022FA0834204603B0BDE8F08F234413
:1051B00030465A6842F001025A6000F015FA08348D
:1051C000204603B0BDE8F08FBC68636823F0030895
:1051D000A84504D3C5EB08030F2B00F38C80554B77
:1051E000DFF860911A68D9F8003001332A4404EBE3
:1051F000080A00F0608102F580520F3222F47F62CB
:1052000022F00F0211463046019200F0EFF9B0F1A2
:10521000FF3F8346019A00F05881824500F2FC80EE
:10522000454B1968DA451144196000F05381D9F8EB
:105230000000DFF810E101301BBFCAEB0B0A51443C
:10524000CEF800B019601BF0070100F01781C1F122
:105250000800C1F58051834408315A44C2F30B025F
:10526000C2EB010949463046019300F0BFF9431CE7
:10527000019B00F03F81CBEB00024A4442F0010267
:105280001968C7F808B04944BC42CBF8042019603B
:10529000DFF8A49016D0B8F10F0F40F2FD806268DD
:1052A000A8F10C0323F00703E01802F001024FF00D
:1052B000050E1A430F2B6260C0F804E0C0F808E046
:1052C00000F21C811D4BBC681A68914288BF1960AE
:1052D0001B4B1A689142626888BF196022F0030272
:1052E0009542A2EB050301D80F2B04DC304600F0F9
:1052F0007BF9002438E7621943F0010345F001050A
:1053000065603046BA60536000F06EF9083420469C
:1053100003B0BDE8F08F142B71D9542B00F2A48098
:10532000280B00F16F0E4FEA4E036E3076E600BF99
:105330006C0DFF1F083CFF1F0C3CFF1F043CFF1FB0
:10534000003CFF1F7811FF1F5A0A042A5ED9142A55
:1053500000F2B38002F15C0149005B3207EB810C83
:1053600057F82110DFF8DC81ACF1080C8C4500F017
:1053700088804A6822F00302934202D289688C45F1
:10538000F7D1D1F80CC07A68C4F80CC0A160CCF891
:105390000840CC6088E6631942F0010745F001053A
:1053A000656030464B610B61C3F80CE0C3F808E060
:1053B0005F609A50083400F017F9D5E64A6873E642
:1053C00008F1010818F0030F0CF1080C7FF47FAE10
:1053D00030E0DC68A34208BF02303FF435AEB3E6EC
:1053E0000B440C465A68C96854F8085F42F0010241
:1053F0005A603046E9608D6000F0F6F8B4E603F1DB
:105400005C0E03F15B004FEA4E0307E69A0902F1D6
:10541000390149003832A1E7BC424A4B3FF400AFA2
:105420009C68626822F003025AE759F808399945E6
:1054300040F0828010F0030F00F1FF30F5D17B685F
:1054400023EA04037B6064009C423FF6BDAE002C5F
:105450003FF4BAAE1C4240467FF435AE64001C42B5
:1054600000F10400FAD02EE6B3F5AA7F18D8E80BB5
:1054700000F1780E4FEA4E037730CFE54FF48051BC
:10548000EBE60121D8F80430921001FA02F21A4337
:10549000C8F80420614677E70123CBF8043025E7FC
:1054A00040F25452934220D8A80C00F17D0E4FEAEE
:1054B0004E037C30B2E51032A4E6542A26D81A0BEB
:1054C00002F16F0149006E3248E7BC68626822F061
:1054D000030205E7CAF30B0000287FF4A8AE42449C
:1054E000BB6842F001025A60ECE6FE234FF07F0EEB
:1054F0007E2093E501224FF00009C1E604F1080186
:10550000304600F07DF9D9F80010DBE6B2F5AA7F4D
:1055100005D8DA0B02F17801490077321EE740F234
:1055200054518A4205D89A0C02F17D0149007C321F
:1055300014E7FE217E2211E77B6884E7E808431C1C
:105540005B00F8E56C0DFF1F70B4840746D0541E55
:10555000002A41D0CDB2034602E0621EE4B31446F5
:1055600003F8015B9A07F8D1032C2ED9CDB245EA96
:1055700005250F2C45EA054519D903F110022646E9
:10558000103E0F2E42F8105C42F80C5C42F8085CAA
:1055900042F8045C02F11002F2D8A4F1100222F0E9
:1055A0000F0204F00F041032032C13440DD91E46D1
:1055B0002246043A032A46F8045BFAD8221F22F056
:1055C00003020432134404F003042CB1C9B21C4496
:1055D00003F8011BA342FBD170BC7047144603467D
:1055E000C2E700BF704700BF704700BF38B5074C27
:1055F0000023054608462360FDF736FC431C00D017
:1056000038BD2368002BFBD02B6038BD483CFF1F02
:1056100040EA01039B0770B42BD1032A29D90C4619
:105620000346214654F8046BA6F1013525EA060528
:1056300015F0803F06D1043A032A43F8046B214653
:10564000EFD8A2B10C781C70013A013301313CB1A2
:105650006AB111F8014B03F8014B013A002CF7D164
:105660002AB11A44002103F8011B9A42FBD170BCF5
:1056700070470346E5E700BF2DE9F047254C256854
:10568000D5F848410646884692469946C4B36068B4
:105690001F2817DC431C76B104EB80050122C5F8F6
:1056A00088A0D4F8881182401143022EC4F88811D2
:1056B000C5F808911ED00230636044F820800020B5
:1056C000BDE8F087144B03B34FF4C870FFF774FCC8
:1056D0000446D0B1D5F84831002780E88800C5F8E5
:1056E000484138460123C4F88871C4F88C71002EF3
:1056F000E1D0D1E7D4F88C110A43C4F88C21DAE761
:1057000005F5A674C5F84841C1E74FF0FF30BDE884
:10571000F08700BFC85E0000B94F0000024B13B114
:10572000024800F005B87047000000003D57000037
:10573000002301461A461846FFF79EBF38B5074DAD
:10574000074C2C1BA41005D0013C55F8043D98478C
:10575000002CF9D1BDE8384000F0C4BB00000000C7
:1057600000000000F8B5234F0C460646FFF73AFF4D
:10577000BB685D6825F00305291B01F6EF7121F474
:105780007F6121F00F01A1F58054B4F5805F07DB44
:1057900000213046FFF72AFFBB682B44984204D013
:1057A0003046FFF721FF0020F8BD61423046FFF789
:1057B0001DFF01300DD0104BBA6819682D1B45F044
:1057C00001053046091B55601960FFF70DFF0120E8
:1057D000F8BD00213046FFF709FFBA68831A0F2B86
:1057E000DEDD064C0449246843F00103001B5360CE
:1057F0000860D5E76C0DFF1F0C3CFF1F7811FF1FE1
:10580000002945D02DE9F0410D468046FFF7EAFE1C
:1058100055F8047C6A4927F00103A5F10804E21851
:105820008E685068B24220F0030062D0FE075060DC
:105830000BD455F8087CE41B01F1080EA5687545EA
:105840003B446FD0E768EF60BD6015186D68ED07E9
:1058500042D543F001026260E350B3F5007F18D2F5
:10586000DB085A1C4D6851F83270A76001209B106C
:1058700000FA03F301EBC2001D430838E0604D60FD
:1058800041F83240FC604046BDE8F041FFF7ACBE55
:1058900070475A0A042A53D89A0902F139077F003F
:1058A00002F1380501EB870051F8272044490838F8
:1058B00090424DD0516821F003018B4202D2926890
:1058C0009042F7D1D068E060A2608460D460404626
:1058D000BDE8F041FFF788BE95683A4FBD420344EA
:1058E0003FD0D068E86043F0010285606260E35019
:1058F000B3E7FF07034407D455F8082CA41A134450
:10590000A068E268C26090602F4A126843F001000C
:10591000934260608C60B6D32C4B40461968FFF709
:1059200021FFB0E711184968C90744D49168D268CB
:10593000CA60034443F0010091606060E350A2E755
:10594000142A17D802F15C077F0002F15B05A9E772
:10595000AA104B68012505FA02F213434B60024678
:10596000B1E743F001024C610C61E560A560626043
:10597000E35088E7542A06D81A0B02F16F077F001C
:1059800002F16E058EE7B2F5AA7F06D8DA0B02F1B6
:1059900078077F0002F1770584E740F25450824295
:1059A00006D89A0C02F17D077F0002F17C0579E7A9
:1059B000FE277E2576E743F001026260E35062E74E
:1059C0006C0DFF1F740DFF1F7411FF1F083CFF1F9C
:1059D00000000000000000008D1400008904000099
:1059E000191C0000B5050000C50C0000B905000039
:1059F000BD050000000001010001010101020101DB
:105A00000202010203010203020204020205020271
:105A10000503020603020703020704030704030742
:105A20000504070504070605070606070606070717
:105A3000070707FF09000000212000005379733A8F
:105A40000000000020473A0020413A00204D3A0073
:105A50004D42200020204F56455252554E3A2000CC
:105A600020204C454E3A2000204558543A20000052
:105A70002054533A200000002049443A20000000FE
:105A8000204275666665723A200000004F726965B3
:105A90006E746174696F6E2053656E736F722052FD
:105AA00061772044617461205465737400000000C4
:105AB0004F6F6F70732C206E6F20424E4F30353514
:105AC000206465746563746564202E2E2E204368FF
:105AD00065636B20796F757220776972696E6720D4
