:1000000000000320D1010000A50B00005D0B0000E3
:100010005D0B00005D0B00005D0B00005D0B000040
:100020005D0B00005D0B00005D0B0000A50B0000E8
:10003000A50B00005D0B000081210000852200005F
:10004000A50B0000A50B0000A50B0000A50B0000F0
:10005000A50B0000A50B0000A50B0000A50B0000E0
:10006000A50B0000A50B0000A50B0000A50B0000D0
:10007000A50B0000A50B0000A50B0000A50B0000C0
:10008000A50B0000A50B0000A50B0000A50B0000B0
:10009000A50B0000A50B0000A50B0000A50B0000A0
:1000A000A50B0000A50B0000A50B0000A50B000090
:1000B000A50B0000A50B0000A50B0000AD23000060
:1000C000A50B0000D9240000A50B000005260000A8
:1000D000A50B0000FD260000A50B0000A50B0000ED
:1000E000A50B0000A50B0000A50B0000A50B000050
:1000F000A50B0000A50B0000A50B0000A50B000040
:10010000A50B0000A50B0000A50B0000A50B00002F
:10011000A50B000085100000A50B0000A50B00003A
:10012000A50B0000A50B0000A50B0000A50B00000F
:10013000A50B0000A50B0000A50B0000A50B0000FF
:10014000A50B0000A50B0000F5270000A50B000083
:10015000A50B0000A50B0000A50B0000A50B0000DF
:10016000A50B0000A50B0000A50B0000A50B0000CF
:10017000A50B0000A50B0000A50B0000A50B0000BF
:10018000A50B0000A50B0000A50B0000A50B0000AF
:10019000A50B0000A50B0000ED280000A50B00003A
:1001A000A50B0000A50B0000A50B0000A50B00008F
:1001B000A50B0000A50B0000A50B0000A50B00007F
:1001C000A50B0000A50B0000A50B0000A50B00006F
:1001D0005C4B4CF2205210B51A804DF628121A8052
:1001E00000BF00BF00F0E2FC574B4FF030621A60D6
:1001F000564A9A60564ADA60564B4FF470021A60BB
:10020000554B564A1A60564B1A78110703D51A787F
:1002100042F008021A70534B5349AA221A70534AEB
:10022000534B8B4204D252F8040F43F8040BF8E707
:10023000504B514900228B4202D243F8042BFAE77B
:100240004E494F4A002352F8230041F8230001335E
:10025000742BF8D14B4B4C4A802103F8011B93427D
:10026000FBD14A4B454A1A60494B8A221A70A3F5C2
:10027000805324225A70A0221A709A799207FCD5D2
:100280009A79D406FCD4434A937903F00C03082BE3
:10029000FAD1414B60221A7002331A78802AFCD1BD
:1002A0003C4B01221A715D225A719A799006FCD555
:1002B0009979384A4906FBD5384B394919600021EC
:1002C000596020231370937903F00C030C2BFAD19F
:1002D000344B354A1A60354A354C136813F4807331
:1002E00003D123604FF4A8531360324B324A1A6093
:1002F00000225A60072243F8042C304AC3F80C2D20
:1003000062B600F02FFD2368DA0705D52C4800F00F
:10031000C5FC2C4B2C4A1A602C4B1B785B0609D56C
:10032000284C294B22689A4204D1254800F0B6FC9B
:100330000023236002F094FB00F03EFC00F006FC7A
:10034000FEE700BF0E20054030800440823F0400DD
:100350000100002B88ED00E0002008E0030000858C
:1003600002D0074000E007402C10FF1F703400004F
:100370003007FF1F2C10FF1F6416FF1F0002FF1F16
:100380000000000000E400E064E400E008ED00E0AC
:10039000005006400040064001E007404480044011
:1003A0000000060204800440C010070010D0034083
:1003B00014D0034014E000E01FBF02000000202022
:1003C0002B94BF601CE00340A5C3945A00F0074083
:1003D000FFFFFFFFFFFFFFFFFFFFFFFFFFFFFFFF2D
:1003E000FFFFFFFFFFFFFFFFFFFFFFFFFFFFFFFF1D
:1003F000FFFFFFFFFFFFFFFFFFFFFFFFFFFFFFFF0D
:10040000FFFFFFFFFFFFFFFFFFFFFFFFDEF9FFFF23
:1004100010B5054C237833B9044B13B10448AFF33E
:1004200000800123237010BD2C10FF1F000000006E
:1004300074340000084B10B51BB108490848AFF3ED
:1004400000800848036803B910BD074B002BFBD0A0
:10045000BDE81040184700BF000000003010FF1F2B
:10046000743400002C10FF1F0000000038B5044653
:1004700000230A2508466360A36023612375C4F83E
:10048000B830C4F8BC30C4F8C43084F8C830E56073
:10049000C4F8C050216002B1114600F0DBF92046DB
:1004A00038BD00BFF0B58E68D1F80CE0013601EB25
:1004B000061308330C4605460FCB96FBFEF785E87E
:1004C0000F000EFB17662769A660013F0026267500
:1004D00028462761F0BD00BF84B0F0B585B00BACF5
:1004E00084E80E00054694E80F0095F8C8608DE892
:1004F0000F00EEB9D5F8B870D5F8C0E0D5F8BCC09B
:10050000D5F8C460013705EB0714BC3484E80F004C
:1005100097FBFEF30EFB1377674506F1010608BF54
:100520000123C5F8B870C5F8C46008BF85F8C830A5
:1005300005B0BDE8F04004B0704700BFF0B589B029
:1005400004466946006800F0CDF99DE80F00267D5D
:1005500004AD85E80F00C6B96768D4F80CE0D4F89C
:1005600008C02669013704EB0715083585E80F0038
:1005700097FBFEF30EFB1377674506F1010608BFF4
:1005800001236760266108BF237509B0F0BD00BF75
:10059000F0B5D0F8BC60D0F8C0E0013600EB06132F
:1005A000BC3304460FCB96FBFEF70EFB1766D4F860
:1005B000C470C4F8BC6085B00026013F8DE80F0010
:1005C00084F8C8606946C4F8C470206800F0F8F97F
:1005D00005B0F0BDF0B40E480E490F4A002340F6B6
:1005E000FF3404265525446043700370012040F613
:1005F000FF774FF0FF340B714E710D721371137250
:1006000050710F601460CB80D380F0BC704700BF86
:100610005410FF1F5C10FF1F6C10FF1FF0B51D4E24
:100620001D4D1E481E4F1F4C87B00A2101F0D2FB02
:10063000297A00230A22304600F048FA304600F0BA
:1006400035FAEB68009395E80E003846FFF744FF53
:100650003846FFF79DFF022000F032FB02AD38461E
:10066000FFF76CFF39462846FFF71CFF95E80F009F
:1006700084E80F000E210C4801F0ACFB217A3046D3
:100680000023022200F022FA304607B0BDE8F04015
:1006900000F00CBA3407FF1F5C10FF1FB4330000DA
:1006A0008C10FF1F7C10FF1FC033000010B5094CD9
:1006B00082B000231A46204600934CF2503100F0DD
:1006C0000FF8054A0548214602B0BDE81040FFF783
:1006D000CDBE00BF4810FF1F5410FF1F8C10FF1F1E
:1006E00010B4494C84609DF80440002A54D0474B14
:1006F000474C484A83604FF4007323601360464AB6
:10070000414C137843F0800313708368A34251D0A7
:100710003E4A934258D05A6822F400525A60826886
:10072000136843F0804313608268136823F000432A
:10073000136082681368DB02FCD4136883F00073D3
:10074000136083681A689401FCD41A68D201FCD53E
:100750001A6822F400321A60826813684CF250342E
:1007600043F00053A142136041D02C4B994242D038
:100770002B4B994243D02B4B994234D02A4B994270
:1007800083680CBF294A2A4A5A60002303704370C9
:1007900043605DF8044B7047012B1FD0254B4FF48D
:1007A00000721A60012C0CBF234B244B4FF40072D3
:1007B0001A60A4E7A2F5E732A2F5E272136843F0EB
:1007C000100313608368A6E7A2F5B722A2F5FA62C8
:1007D000136843F01003136083689CE7184B4FF4D1
:1007E00000721A60DEE78368164A5A60CDE78368B4
:1007F000154A5A60C9E78368144A5A60C5E7836896
:10080000134A5A60C1E700BF0040024000400A405E
:1008100060D0044064D0044000500640A08601002F
:1008200090D0030020A1070040420F000200090100
:1008300002007B07309004404CA0044034900440F8
:1008400048A0044002007B0102007B1302007B09E8
:1008500002007B0310B4836800221A614B78002BDE
:100860002FD04B680A7881685B00002A23F0404350
:1008700023F001030CBF4FF080424FF0404213437E
:100880008B648268136823F0805313608268136856
:10089000D901FCD4536843F48053536082681368D1
:1008A0001B01FCD480234FF0006400E0826803F158
:1008B00080011033B3F5807F8C50F7D15DF8044B85
:1008C00070470C784B68064A8168DB04002C02EA0A
:1008D00003020CBF00234FF0004313438B64D0E7A7
:1008E0000000F83FF0B5CA8883B00C460546F2B167
:1008F000324E836831680091009F196B88061AD4C4
:1009000033680193019BDB1B93420DD201F066FB20
:10091000AB681A6B91060ED4E3882BB13268019252
:10092000019AD21B9342F1D8002003B0F0BD836836
:100930001A6B9206F8D5D3F88030C3F30343637182
:10094000AA68D2F8802012F400122FD0012222715E
:10095000AA68D2F8841021F060412160D2F8882082
:10096000E272100A110C042B4FEA1262A07261723B
:1009700022720DD8083323440022103403F8012BCF
:10098000A342FBD1AB68202201201A6303B0F0BD63
:10099000AA68D2F88C20E273100A110C072B4FEAD8
:1009A0001262A07361732273E4D9EBE72271AA6823
:1009B000D2F88410C1F38A412160CFE7F811FF1FFC
:1009C0002DE9F043CE8883B0894605461EB1354BEC
:1009D0001B680093009EAA68324F80324FF00808CF
:1009E0008024135903F07063B3F1006F02EB04012C
:1009F00015D0B9F806303BB908F10108B8F10F0F6E
:100A00003EDC4FEA0814ECE73A680192019A921B27
:100A1000934235D901F0E2FAAA688032E1E70B602F
:100A200099F8043023BBD9F80010AB681E4A89043A
:100A300084330A401A51AB68D9F80820883312BAB7
:100A40001A51AB68D9F80C208C3312BA1A5199F8A4
:100A50000430CBB999F80530AA681B04803203F43E
:100A6000702343F040630120135103B0BDE8F083CD
:100A7000AB68D9F80020843322F060421A51DAE7DB
:100A8000002003B0BDE8F08399F80530AA681B0484
:100A9000803203F4702343F046630120135103B006
:100AA000BDE8F083F811FF1F0000FC1F00B5064AE7
:100AB000036812885B6883B001A9ADF804200222A4
:100AC000984703B05DF804FBD0330000F0B507464B
:100AD0008BB0002A33D0012A08BF0A2251B3212447
:100AE00000E0F4B2B1FBF2F502FB1511C8B209291E
:100AF00000F1300198BFC8B20AA988BF373021443D
:100B000088BFC0B201F8240C661E2946002DE8D12A
:100B100033B1013CE4B20AAB23442D2203F8242C68
:100B20003B6801AA11195B683846C4F12202984754
:100B30000BB0F0BD30228DF825202124E8E70368B2
:100B4000C9B21B6898470BB0F0BD00BF08B5FFF7EE
:100B500041FDFFF763FD01F041FAFAE708B5104CDB
:100B600008E0236859050DD423681A050FD42368BB
:100B7000DB0411D423685803F3D500F083FA23680B
:100B80005905F1D501F012FC23681A05EFD501F0E3
:100B9000A3FC2368DB04EDD501F034FDEAE700BFD8
:100BA0003480044008B5FFF7D9FF00BF014B102285
:100BB0001A80704700200540704700BF094908B5FA
:100BC0000B6830B16A461844A2F50052904202D236
:100BD0000860184608BD01F03DFF0C2303604FF08C
:100BE000FF3008BD3007FF1F084A1378802B01D063
:100BF000002070470649074B07480860002119701C
:100C00001378802BFCD00120704700BF03E0074021
:100C10004480044001E0074000002822094A13787C
:100C2000012B01D00020704703F1804303F5FC2322
:100C3000602119701378802BFCD1034B034A1A6092
:100C40000120704703E00740448004400000060292
:100C5000F0B44D1E2E46002400E00134B0FBF2F348
:100C600002FB1300092800F130078ABF3730F8B2C1
:100C7000C0B206F8010F1846002BEED10A195370C6
:100C80004CB1107815F8016F28700133E01A8342D7
:100C900002F80169F5DB0846F0BC704730B4054B3B
:100CA000054D064C002210211A602A602060196050
:100CB00030BC704714D0034004D0034000D0034040
:100CC0002DE9F843054672B6224F234B234A1B6891
:100CD0003C68126862B6520102D5322B88BF0134DB
:100CE000B5B3C3F52F3303F21F331D4EDFF8689001
:100CF000DFF868809B084FF47A72A6FB031302FBAF
:100D000004F404EB930472B6D9F800103A68D8F8EA
:100D100000E062B6C1F52F3303F21F339B08A6FB38
:100D200003031EF0806FC4EB93034FF47A7002D07C
:100D3000322988BF013200FB0233B3F57A7F04D336
:100D4000013D05D004F57A74DDE701F047F9DAE7F3
:100D5000BDE8F883F811FF1F18E000E004ED00E0A3
:100D6000176CC116F8B54E4B4E48DFF85CC14E4CBF
:100D70004E49DFF858E14E4E4E4D4F4F4FF0006256
:100D80001A604FF080521A604FF000521A604FF014
:100D900080421A604FF000421A600022026028234D
:100DA0004EF6FF70CCF80000CEF8003023600EF550
:100DB000012E0B6033602B6006F500263B6005F5C5
:100DC0000025A36207F500278B6204F5012401F5D5
:100DD000012106F6E87605F6E87507F57F6710311C
:100DE0000EF1100E203433602B60CEF800303B60E3
:100DF0000B602360314CBB618B6109212160A7F539
:100E0000002704F58054203F08343A602060BB601E
:100E1000E36047F8041C04F5FD2407F5FE270437BA
:100E200004F2FC7422603860A360FB6044F8041C88
:100E3000083404F6FC74C7F8FC2F2060A4F5E12404
:100E4000A4F2DC7433602B60C7F8F81F21681C48DB
:100E500041F40071216001681A4C0EF57F4E0EF1CD
:100E6000E80E07F5883706F5803605F5803541F040
:100E700000710160CEF8002047F6FF71082239604A
:100E800033602B60226001F011FA1920FFF718FF80
:100E900000F05EFE40F21310BDE8F840FFF710BF0F
:100EA00004E100E004800340148003401C80034000
:100EB000248003402C8003403480034000800340A2
:100EC0000480044000900C40088003400C800340E4
:100ED000431E032B14D872B60A4951F8230068B197
:100EE00070B4094C058834F81320466841F8236033
:100EF000521B24F8132062B670BC704762B670476C
:100F0000002070475412FF1F4C16FF1F01380328A2
:100F10000BD872B6074B53F8203043B100205B6802
:100F20000130002BFBD162B6704700207047184695
:100F3000F9E700BFA812FF1F30B472B62B4A13782E
:100F40001D0706D52A4B196A002936D0996A00294F
:100F500041D053781C0706D5254B196C00293ED08B
:100F6000996C002939D09378190705D5204B196E53
:100F7000002936D0996E89B1D3781B0707D51C4B51
:100F8000D3F880207AB3D3F8882011213AB162B621
:100F9000184B00221A7030BC00F090BE0D21154C89
:100FA000154D227843F8315003EBC1030830013A64
:100FB0005860227062B630BC704704220D4C0F4D51
:100FC000217843F8325003EBC20308304A1E5860C0
:100FD000227062B6EFE70521E1E70921DFE7082289
:100FE000ECE70C22EAE71022E8E700BFFC33000040
:100FF0000000FF1FD112FF1FC80040008800400002
:10100000431E032B1DD81B4A400140F0100030B492
:10101000104472B6184CE25C032A1BD8DFE802F0D9
:101020000212151703220D88E25410F0080F14BFA6
:10103000C823882343EA054308310360416062B650
:1010400030BC704708300222EDE70522EBE708309C
:101050000422E8E7094A52F8230038B1084A52F856
:101060002300416042F8231062B6E9E742F82310FA
:10107000034AF7E70000FF1FE012FF1FA812FF1F3F
:10108000B812FF1F2DE9F04FDFF818B3DFF818A3EF
:1010900087B044E0AE4F4FEA930807EBC809013E22
:1010A000D9F8042003F00803F6B2A2F1080003F017
:1010B000FF04002B40F0048157F838301B0C99B224
:1010C00022F8081C002B00F0F280A24B22F8064CFC
:1010D00042F8044C53F82620002A00F06E819E4D01
:1010E00055F8263058609D4C45F8260034F81630E7
:1010F000194424F8161000F0C1FD002800F05681B4
:10110000974A984B19F0080F00F1080018BF1346D2
:10111000C9F8040047F8383008238BF800309BF8F2
:101120000040E4B261071BD58F4B1B78ABB18F49F0
:101130000A7802F0FF032AB1013BDBB20B70002BEF
:1011400000F0EF848A490A7802F0FF032AB1013BDC
:10115000DBB20B70002B00F0F78004238BF800301B
:1011600004F0080303F0FF02002B00F0D6809AF889
:101170000030DBB21E098DD19C08DFF8D49159F8FC
:10118000342009EBC401C2F38302013A49680C2AF6
:101190007ED8DFE802F081817D7D7D7D7D7D477D8C
:1011A0007D7D07000868734D4A68734F734E286051
:1011B00081B240F281606A4B6A604FF0010E0022FA
:1011C000814249F834303A60C9F81020C9F8182033
:1011D00086F800E05E4C00F2F480B1F5D06F80F04C
:1011E0007883B1F5817F00F0628300F287828029E5
:1011F00000F0EC82822940F01E83A98801F07F0173
:10120000042900F218835E485E4C8900084422706D
:1012100062700278930740F1798384F800E04FF020
:10122000020ED8E2544F3A6842B3574B534E5749D7
:10123000188834780D784028864645F0020828BF83
:101240004FF0400E002C84F001043470CEEB00000F
:101250000CBF8824C82409EBC80680B285F00105BC
:1012600044EA0E447260188049F8384072440D70A8
:1012700018B9BEF1400F18BF00223A603D4B1A88E2
:10128000B2F5A06F04D100219A785970404B1A70C2
:10129000404A012313703FE7364A158842F2210085
:1012A000854200F0FF812E4A49F83420F0E72C4AAD
:1012B0002C4B19F0080F18BF134647F838302BE7AE
:1012C00000F0FCFC344A354952F82630002B00F07F
:1012D000B68158688C5D42F8260003F10802C9F80F
:1012E0000420032C05D8DFE804F0120F15020422B5
:1012F0008A551A8819F0080F0CBF8823C82343EABF
:10130000024347F8383007E702228A55F1E7032203
:101310008A55EEE705228A55EBE7E00700F11A82CD
:10132000210600F14982A20706D51D4A1D491378FE
:101330000220DBB213700870E30602D5194B1022AD
:101340001A7007B0BDE8F08F00F024FE05E700BF7B
:101350000000FF1F5412FF1F0012FF1F4C16FF1F3B
:10136000C800400088004000DC12FF1F6512FF1F0C
:10137000E412FF1FC812FF1FFC11FF1F6412FF1FA2
:10138000C0200740D412FF1F1012FF1FD012FF1FF2
:101390009820074094200740A812FF1FE012FF1F6B
:1013A000882007408020074090200740AB4A47F83C
:1013B0003800137801331370AEE643F82600A84DC9
:1013C00091E642F22100814200F0358100F2AF81C6
:1013D000B1F5086F00F01B82B1F5106F40F02B8261
:1013E000226AA049A8780870120600F14583D9F84E
:1013F00028209D49130600F13A83D9F830209A49F4
:10140000150600F12F83D9F838209749140600F10A
:101410002483D9F840209449100600F11983D9F8A3
:1014200048209149120600F10E83D9F850208E49C8
:10143000130600F10383D9F858208B49150600F1F3
:10144000F882D9F860208849140600F12983D9F878
:1014500068208549100600F11E83D9F87020824962
:10146000120600F11383D9F878207F49130600F1A2
:101470000883D9F880207C49150600F11C83D9F82F
:1014800088207949140600F11083D9F89020764914
:10149000100600F1C882D9F898207349120600F1AD
:1014A000BC827248724A7349019073486C4D734C08
:1014B0000497002305960295804617460E461D4662
:1014C0000394386828B1446800F0F8FB2046002CEB
:1014D000F9D100233B60029B30681A46002342F892
:1014E000253028B1446800F0E9FB2046002CF9D1F2
:1014F00000223260019A98F800301146002241F82B
:10150000042B039A0191023B4FF0000122F81510C1
:10151000032B09D8DFE813F04B0104004B01040052
:101520004FF0010388F800300135042D07F104075E
:1015300006F1040608F10108C3D1514C514B227841
:10154000464D049F059E002129701A70130700F173
:101550004F8262784C49DFF810810A7010074FF013
:101560000001C9F83010C9F8381000F12B82474942
:10157000A2780A700021C9F85010C9F85810110754
:10158000DFF8E48000F1DC81E2784149364C0A70F2
:1015900000211207C9F87010C9F8781000F1B9815C
:1015A00033780193002183F00102C9F89010C9F843
:1015B00098100020029080468446044635490D78F4
:1015C00045F0020E09EBCE030393019B002B039B16
:1015D0005C600CBF8824C82444EA080385F0010439
:1015E00049F83E3032700C70DFF87CE02A4BDFF8AF
:1015F000A480002840F02681BCF1400F1BD144F0AC
:10160000020C09EBCC03029CDFF85CE05C60002A72
:1016100040F02E81020442F088029DF804304EF81A
:101620003C20044433700D702346402803D1002031
:101630001A4A3B6010801A4A0123137028E68B5D1A
:10164000032B00F22D8101A252F823F019110000A2
:1016500019110000A3170000A9170000D112FF1FE5
:101660000012FF1FDC12FF1F0000FF1FB812FF1F38
:101670005412FF1FA812FF1FE012FF1F4C16FF1F7E
:10168000FC330000C4200740C8200740CC2007409E
:10169000D0200740D012FF1F6412FF1F1012FF1F3F
:1016A00094200740928892B9B14A0D784878157015
:1016B00050708D78C8789570D07010680D7915715C
:1016C00086284D7989795571917100F0A580A949D5
:1016D000A94E0A78307882F00105002842F0020213
:1016E0000D700CBF8821C82149F8321009EBC202E5
:1016F00080F00100002130705160D4E540F20232E8
:10170000914240F08D80A98801F07F01042900F208
:1017100092806A88002A40F08E809848CDF804E0D4
:1017200089000844017841F00201017041E742F26A
:10173000212081427BD1A988002940F0E480904B90
:10174000904A9148AC781D681560CDF804E00A46CF
:1017500004702EE78D4B8E4886491A614FF0020EB9
:1017600080F800E0854F0A708A49196099608A4EB6
:101770008A4D8B4C9A610D213970FF213170DFF851
:1017800040E229702270874D874A8EF800109F270B
:10179000012406F8047C5D600470DA6007B0BDE8DF
:1017A000F08F00238B55B7E401238B55B4E44FF041
:1017B000000388F80030B7E67049784B80220D208E
:1017C00008701A70A2077FF5B7ADAEE5774C4FF001
:1017D000020E22706270EA88724580F0A38165492A
:1017E0000D78402A944645F0020E28BF4FF0400C79
:1017F00004EB0C0309EBCE000293012344604FEA93
:101800000C48CCEB020001930022C824E4E6684AAD
:10181000664C12782270DEE7664A0F21117056E797
:10182000B1F5A06F07D1012300220193C1E642F276
:1018300021329142F7D0514A0F231370544A0123A9
:10184000137025E540287FF6DAAE44F002040EEB73
:10185000C401029E4E60BAB19DF80410564A197038
:101860003346403888F8005040334EF83420DFE6E5
:101870009DF8043033700204029B0D7042F0C802E0
:1018800003444EF83C20D0E69DF804101970029BEA
:10189000404A88F80050403840334EF83420C7E6BC
:1018A00019F0080F0CBF022303238B5534E4A988D9
:1018B00001F07F010429BED86A88002ABBD12F48D5
:1018C000CDF804E089000844017821F0020101709C
:1018D0006FE63A4A5468002CADD06888B5F804E049
:1018E00003E00C325468002CA5D013888342F8D151
:1018F00053887345F5D1000A03280CBF94F800E023
:10190000B2F808E067E7CDF804E052E64FF0020EC7
:1019100061E700F0B3F9002800F0F18008301D4ABB
:10192000C4F88400C4F8802000F0A8F9002800F072
:10193000E0800830204AC9F88C00C9F888202FE6DA
:1019400000F09CF9002800F0E6800830114AC8F841
:101950006400C8F8602000F091F9002800F0D580FC
:101960000830154AC9F86C00C9F868200CE600BFB9
:101970005416FF1FD012FF1F6412FF1FC020074024
:10198000F811FF1F5C16FF1FF412FF1F0000FF1F5E
:1019900094200740880040008820074080200740AE
:1019A000982007401412FF1F6812FF1FD412FF1F58
:1019B000DC12FF1F6512FF1FC8004000003400004A
:1019C0008C20074000F05AF9002800F08C80083085
:1019D0005D4AC8F84400C8F8402000F04FF90028DC
:1019E0007BD00830594AC9F84C00C9F84820BEE5F8
:1019F00000F044F900286AD00830534AC9F824009E
:101A0000C9F8202000F03AF900285AD008304F4A8F
:101A1000C9F82C00C9F828209BE5D1F89C000838AB
:101A200000F04CF93DE5D1F89400083800F046F993
:101A300031E5C86D083800F041F902E5486D083815
:101A400000F03CF9F7E4C86C083800F037F9ECE432
:101A5000486C083800F032F9E1E4C86B083800F04F
:101A60002DF9D6E4486B083800F028F9CBE4C86AB1
:101A7000083800F023F9C0E4606A083800F01EF965
:101A8000B5E4C86F083800F019F9F2E4486F083877
:101A900000F014F9E7E4C86E083800F00FF9DCE450
:101AA000486E083800F00AF9D1E4D1F88C00083803
:101AB00000F004F9E9E4D1F88400083800F0FEF8F9
:101AC000DDE42A78C9F8280001322A7041E52A7835
:101AD000C9F8200001322A7094E72A78C9F8480032
:101AE00001322A7043E52A78C8F8400001322A7092
:101AF00073E72A78C9F8880001322A7050E52A78FD
:101B0000C4F8800001322A700EE72A78C9F868000C
:101B100001322A7038E52A78C8F8600001322A704C
:101B200019E700BEBEF1400FF44628BF4FF0400C4D
:101B300004EB0C0302930123CCEB0E004FEA0C489C
:101B4000002201933AE500BF88004000C800400031
:101B50002DE9F04100F03CFF314C324B3248DFF8C8
:101B6000E480324EDFF8E0C0314F324DDFF8DCE088
:101B700000221A605A609A60DA601A615A619A61AA
:101B8000DA611A625A629A62DA621A635A639A6373
:101B9000DA631A645A649A64DA641A655A659A6553
:101BA000DA651A665A669A66DA661A675A679A6733
:101BB000DA67C3F880202168C3F8842041F48021CB
:101BC0002160016841F040710160032188F8001034
:101BD000A020C3F307218CF8000004F528343170ED
:101BE000C3F30740144938701B0E2B70CC34FF230D
:101BF0008EF80030114D0CF8B83C11480B700123E1
:101C000006F8083C227070264FF40014102207F8E2
:101C10002C3C2E70046081F8F820BDE8F08100BFF4
:101C2000348004400000FF1F00D800409C20074083
:101C3000B0200740B42007401020074035E400E002
:101C400004E100E044210740402107408020074094
:101C500000F0A4B800F07CB800F056B800F090B8DE
:101C600000F06CB900F046B90846114600F0B2B871
:101C7000084600F033B900BF704700BF72B60D4888
:101C80000268B2FA82F30B2B10DC4FF00041D9400E
:101C900022EA0102026062B6074803EBC303DB00DD
:101CA000C2180021C15010465160704762B6002032
:101CB000704700BF4407FF1FD003FF1F0D4B0E4AA4
:101CC000C31AA2FB03231B090B2B0CD80B4A127857
:101CD00052B972B60A484FF00041026821FA03F384
:101CE0001A43026062B67047064A1278002AF0D0A2
:101CF000FFF722B9D003FF1F398EE338D112FF1F3F
:101D00004407FF1FDC12FF1F38B50F4D286878B15C
:101D100043880288C118013393420C7A02D243806F
:101D2000204638BDFFF7CAFF002320462B6038BD90
:101D3000064B1B782BB10320FFF7CAF82860002858
:101D4000E6D14FF0FF3038BDF012FF1FDC12FF1F4D
:101D500010B5094C206818B143881844007A10BDAA
:101D6000064B1B782BB10320FFF7B2F82060002848
:101D7000F2D14FF0FF3010BDF012FF1FDC12FF1F39
:101D8000044B054A1B6890881BB11A885B88D31ADC
:101D900018447047F012FF1F4C16FF1F0B4B1B78A7
:101DA0009BB110B50A4C206848B1FFF787FF0023AC
:101DB00003202360FFF78CF830B1FFF77FFF03208B
:101DC000FFF786F80028F8D110BD7047DC12FF1F1E
:101DD000F012FF1F2DE9F04FDFF8F89083B00122D9
:101DE00089F80020019169B3DFF8EC80354F019E3E
:101DF0008346D8F80000B0B3334D4488C4F14001A5
:101E0000B14228BF314604EB010E00221FFA8EFEBC
:101E10002A70761AA0F802E000F1080251B1013CE4
:101E2000224459441BF8014B02F8014F8B45F9D16C
:101E3000B0F802E0BEF13F0F0BD8244A0521117023
:101E4000002ED6D10198002389F8003003B0BDE8F8
:101E5000F08F4022028001460420FFF7D1F80022D3
:101E6000C8F80020E9E73A7822B3194C164D4FF034
:101E7000010A07E0013C16D02A78A2B900F0AEF8BA
:101E80003A78BAB10420FFF741F80728F2D889F868
:101E900000A0FFF7F3FEC8F800000028ADD10D4BFD
:101EA000013C1870E8D101234FF0FF302B7003B0D4
:101EB000BDE8F08F00234FF0FF3089F8003003B009
:101EC000BDE8F08FDC12FF1FEC12FF1FE412FF1FB2
:101ED00021480100E512FF1FE812FF1F00B583B083
:101EE00002AB012103F8010D1846FFF773FF03B0A1
:101EF0005DF804FB38B50E4D0E4C286801232370A5
:101F000028B1408800232370C0F1400038BD0A4B3F
:101F10001B7813B90020207038BD0420FEF7F6FFAF
:101F20000728F7D8FFF7AAFE28600028E9D1F1E7D3
:101F3000E812FF1FE512FF1FDC12FF1FF8B5114B5F
:101F40001B788BB1104E114D346801272F7064B18E
:101F50000F4A638800271770214623800420FFF76B
:101F60004FF8376000232B70F8BDFFF787FE084B52
:101F700028B1014604201C70FFF742F8F2E71F70F9
:101F8000F0E700BFDC12FF1FE812FF1FE512FF1F82
:101F9000E412FF1F38B50E4B1B7873B90D4C216846
:101FA00061B103F0FF054B880B800420FFF728F890
:101FB000256038BD084B01221A7038BDFFF75EFE60
:101FC0000028F7D00146BDE838400420FFF718B8D4
:101FD000E512FF1FE812FF1FE412FF1F38B52C4C5B
:101FE000237803B138BD01232370FFF7C9FE002811
:101FF00042D100F0CBF900283BD100F05DFA002877
:1020000034D100F0EFFA70BB00F068FB40BB00F089
:10201000E1FB10BB00F05AFCE0B900232370EFF3A2
:102020000583002BDED1EFF3108172B6194B1868CF
:1020300028B3194C227812BB45691D600123237017
:102040000DB3AA6101B962B6002545778368984748
:102050002570C7E700F028F9DFE700F023F9D9E79A
:1020600000F01EF9D3E700F019F9CDE700F014F9FC
:10207000C7E700F00FF9C0E7FFF7FEFDB9E7002959
:10208000B0D162B638BD054B1D600029DCD1DAE75E
:10209000F512FF1F0813FF1F0C13FF1F0413FF1F70
:1020A00010B4EFF3108272B6437F33B9017F012978
:1020B00008D0032910D00123437702B962B65DF836
:1020C000044B7047114C2168A1B1114943610B6861
:1020D000836108605861EEE70E4C216881B10E49BA
:1020E00043610B688361086058610C4B4FF080516D
:1020F0001960E0E7064B4161816120601860DAE712
:10210000054B4161816120601860EEE70813FF1FF5
:102110000413FF1FF812FF1FFC12FF1F04ED00E065
:1021200010B4047F4160022CC26003D05DF8044B00
:10213000FFF7B6BF83685DF8044B184770B5EFF33F
:10214000108272B60C4C206880B10C4E0025436999
:10215000236073B19D6102B962B645778368984781
:10216000EFF3108272B620680028F0D102B962B68F
:1021700070BD3360EFE700BFF812FF1FFC12FF1FB6
:10218000FFF7DCBF184A30B41468002C27D003686E
:1021900021688B420ED2CB1A00218460C16023607B
:1021A000E06010600223037530BC704711688B42F9
:1021B000144608D3A2685B1A0360002AF6D1826035
:1021C000C460A060EEE7D268C2608460E060C56869
:1021D000CB1A0222A8602360027530BC704784606D
:1021E000C4601060DEE700BF0013FF1FF8B5224E89
:1021F00034682CB32368002B3AD1204F1D4604E0ED
:102200003468ECB12368002B32D1A36803B1DD60E0
:1022100020693360036825751B68BB4221D1037FA9
:102220004560022BC46020D0FFF73AFF6368002BA3
:10223000E6D023602046FFF7A5FF3468002CE1D1EB
:10224000EFF3108372B60E4A00211068116003B9D3
:1022500062B628B18468FFF795FF20460028F9D1BF
:10226000F8BD224600219847E0E783689847DDE7FC
:10227000013B2360E4E700BF0013FF1F21210000A2
:102280001013FF1F024A136801331360FFF7AEBF3C
:10229000F811FF1F704700BF704700BF704700BFB5
:1022A000704700BF704700BF704700BF30B4294877
:1022B000294A2A4B2A4D6024E121047011701B78B1
:1022C000284C082B30D00A2B2748284937D00C2B14
:1022D0000CBF35225D2212232A60236002600B604E
:1022E000234B24491B78244ABBB101230B601360A4
:1022F000224B23491B78234A012B26D9042B0FD9C3
:10230000082B1ED9102B94BF862387230B601360E4
:102310001D4B01221A7030BC70470B601360E7E759
:1023200084230B601360F3E700F58E200F4908301B
:10233000212213232A60236002600B60D0E7392238
:10234000F7E785230B601360E2E780230B601360DF
:10235000DEE700BF00400740014007404807FF1F7D
:1023600008B003400CB0034008B00B400CB00B4069
:102370001513FF1F20B0034020B00B404907FF1F7B
:1023800024B0034024B00B401413FF1F054A064B32
:1023900010781B78C0B2DBB2984238BF4030C01A08
:1023A000704700BF1C13FF1F1D13FF1FF0B4384BF5
:1023B0001A7912F0300F2CD072B6997D01F0FF021D
:1023C00000293DD062B6334F334938780D78334E0B
:1023D0001C46C0B2EDB2431C402BE17928BF00235C
:1023E000AB4202F1FF32C9B21CBFF154184612F0E1
:1023F000FF02F0D12A4B1B68C2B23A704BB1A8421F
:1024000036BFC5F14005401B40192728C4BF012233
:102410001A701F49CA78D2B2150616D452060DD5C5
:102420001B4B1B795B0609D51E4B1F491B680022FD
:102430000A7003B11A70164B3C22DA70F0BC704778
:102440004022D9795A7462B6E3E70B791C06E5D5C8
:10245000164B174E1C783378E4B2DBB29C420ED098
:10246000144D01E0A3420AD00133402B28BF0023C2
:102470000879E85CC0B2C871087D0728F2D9DBB2E0
:10248000034933700B79180644BF7C23CB70C5E732
:1024900000A006401C13FF1F1D13FF1F6013FF1F2A
:1024A0001813FF1FA413FF1FA013FF1FA813FF1F64
:1024B000A113FF1F2013FF1F054A064B10781B783E
:1024C000C0B2DBB2984238BF4030C01A704700BF7C
:1024D0001C14FF1FB113FF1FF0B4384B1A7912F010
:1024E000300F2CD072B6997D01F0FF0200293DD04B
:1024F00062B6334F334938780D78334E1C46C0B23C
:10250000EDB2431C402BE17928BF0023AB4202F11E
:10251000FF32C9B21CBFF154184612F0FF02F0D1CD
:102520002A4B1B68C2B23A704BB1A84236BFC5F104
:102530004005401B40192728C4BF01221A701F49BB
:10254000CA78D2B2150616D452060DD51B4B1B798C
:102550005B0609D51E4B1F491B6800220A7003B198
:102560001A70164B3C22DA70F0BC70474022D979C1
:102570005A7462B6E3E70B791C06E5D5164B174E85
:102580001C783378E4B2DBB29C420ED0144D01E0EB
:10259000A3420AD00133282B28BF00230879E85C26
:1025A000C0B2C871087D0728F2D9DBB20349337085
:1025B0000B79180644BF7C23CB70C5E700B00640FA
:1025C0001C14FF1FB113FF1FDC13FF1FAC13FF1FF1
:1025D0002014FF1FB013FF1F2414FF1F1D14FF1F23
:1025E000B413FF1F054A064B10781B78C0B2DBB24C
:1025F000984238BF4030C01A704700BF2C14FF1FEC
:102600002D14FF1F30B42B4B1A7994061FD52A487E
:10261000DA790378294901333F2B0978C8BF0023B1
:102620008B42D2B203D0264CD9B2E2540170254A73
:10263000116861B1244A1278D2B2934236BFC2F116
:1026400040029B1A9B18272BC4BF01230B70194A09
:10265000D378DBB2180611D45A060DD5154B1B7969
:102660005B0609D5194B1A491B6800220A7003B191
:102670001A70104B2C22DA7030BC704711790906A1
:10268000EAD5144910480C780178C9B28C420DD0B3
:102690004A1C272A84BF00210A460F4D054C98BFCB
:1026A000D1B2AA5CD2B2E2710170D5E76C21D170CF
:1026B000D2E700BF00C006402C14FF1F2D14FF1FDF
:1026C0005814FF1F2814FF1F9914FF1F9C14FF1F8D
:1026D0009814FF1FA014FF1F3014FF1F054A064B5C
:1026E00010781B78C0B2DBB2984238BF4030C01AB5
:1026F000704700BFA814FF1FA914FF1F30B42B4B55
:102700001A7994061FD52A48DA79037829490133C2
:102710003F2B0978C8BF00238B42D2B203D0264C8E
:10272000D9B2E2540170254A116861B1244A127885
:10273000D2B2934236BFC2F140029B1A9B18272B9C
:10274000C4BF01230B70194AD378DBB2180611D429
:102750005A060DD5154B1B795B0609D5194B1A493D
:102760001B6800220A7003B11A70104B2C22DA7019
:1027700030BC704711790906EAD5144910480C7825
:102780000178C9B28C420DD04A1C272A84BF00218F
:102790000A460F4D054C98BFD1B2AA5CD2B2E27185
:1027A0000170D5E76C21D170D2E700BF00D00640A0
:1027B000A814FF1FA914FF1FD414FF1FA414FF1F88
:1027C0001515FF1F1815FF1F1415FF1F1C15FF1FE0
:1027D000AC14FF1F054A064B10781B78C0B2DBB261
:1027E000984238BF4030C01A704700BF2415FF1F01
:1027F0002515FF1F30B42B4B1A7994061FD52A4894
:10280000DA790378294901333F2B0978C8BF0023BF
:102810008B42D2B203D0264CD9B2E2540170254A81
:10282000116861B1244A1278D2B2934236BFC2F124
:1028300040029B1A9B18272BC4BF01230B70194A17
:10284000D378DBB2180611D45A060DD5154B1B7977
:102850005B0609D5194B1A491B6800220A7003B19F
:102860001A70104B2C22DA7030BC704711790906AF
:10287000EAD5144910480C780178C9B28C420DD0C1
:102880004A1C272A84BF00210A460F4D054C98BFD9
:10289000D1B2AA5CD2B2E2710170D5E76C21D170DD
:1028A000D2E700BF00A00E402415FF1F2515FF1F13
:1028B0005015FF1F2015FF1F9115FF1F9415FF1FB7
:1028C0009015FF1F9815FF1F2815FF1F054A064B7F
:1028D00010781B78C0B2DBB2984238BF4030C01AC3
:1028E000704700BFA015FF1FA115FF1F30B42C4B70
:1028F0005A6894021FD52B48DA6803782A490133B5
:102900003F2B0978C8BF00238B4204D0274CD2B29A
:10291000D9B2E2540170264A116861B1254A127891
:10292000D2B2934236BFC2F140029B1A9B18272BAA
:10293000C4BF01230B701A4A9368180202D552686B
:10294000110211D45A020DD5154B5B685B0209D5F3
:10295000194B1A491B6800220A7003B11A70184BF0
:1029600000221A6030BC7047164A124910780A7863
:10297000D2B290420DD00132272A84BF00200246F5
:10298000114D074C98BFD0B2AA5CD2B2E260087079
:10299000D8E70E480A4A0024012104601160D1E7FB
:1029A00000400C40A015FF1FA115FF1FCC15FF1FF5
:1029B0009C15FF1F0D16FF1F1016FF1F0C16FF1F83
:1029C000580188431416FF1FA415FF1F5C0188439C
:1029D00010B584B072B6FEF707F9184A184B1949BA
:1029E0001160702280211A701A46197013781B0624
:1029F000FCD5154B1C68FEF711F962B6134B9C42CF
:102A00009CBF04EB840464002046114C01A90A22F7
:102A1000FEF71EF901A92046002311F8012B01330E
:102A20003AB10A2B20F8022FF7D11623237004B0F5
:102A300010BD5B00DBB2237004B010BD0400024087
:102A400000000240000007410C0002407F96980001
:102A5000D807FF1F014B1868704700BF180CFF1FF5
:102A600070B50F4E0F4D761BB61018BF002405D061
:102A7000013455F8043B9847A642F9D10A4E0B4D54
:102A8000761B00F0E9FCB61018BF002406D0013414
:102A900055F8043B9847A642F9D170BD70BD00BF00
:102AA00064340000643400007034000064340000BA
:102AB000024B0146186800F003B800BF180CFF1F56
:102AC0002DE9F04F01F10B05162D83B0064640F2BB
:102AD0009F8035F0070500F1BF80A94200F2BC805D
:102AE00000F0A6FAB5F5FC7FC0F09C826B0A00F0FE
:102AF000BA80042B00F28381A80900F1390E4FEA55
:102B00004E033830C44F07EB8303A3F108015C6820
:102B1000A14207D1ACE0002A80F2AC80E468A14277
:102B200000F0A680636823F003035A1B0F2AF2DD2E
:102B3000B9493C6901F1080E744500F0B38163683E
:102B400023F003035A1B0F2A00F39981002AC1F8CE
:102B500014E0C1F810E080F29E80B3F5007F80F0B1
:102B60006781DB0803F1010C01229B1002FA03F3D9
:102B70004A6851F83C80C4F8088001EBCC091A433C
:102B8000A9F10803E3604A6041F83C40C8F80C40F2
:102B9000831001249C40944200F28A80144206D1A2
:102BA00020F003006400144200F10400FAD007EBA7
:102BB000C009CC468046DCF80C108C4507D173E187
:102BC000002A80F28181C9688C4500F06D814B68D4
:102BD00023F003035A1B0F2AF2DD0C46D1F80CC078
:102BE00054F8088F4B1945F001054D6042F0010182
:102BF000C8F80CC03046CCF808807B613B61C3F854
:102C00000CE0C3F808E059609A5000F013FA1FE096
:102C1000102921D800F00CFA1025062302207E4F3F
:102C200007EB8303A3F108025C68944200F045813E
:102C30006368E168A56823F00303234430465A68BB
:102C4000E96042F001028D605A6000F0F3F9083447
:102C5000204603B0BDE8F08F00240C2320463360EB
:102C600003B0BDE8F08F80234FF0400E3F2049E7CE
:102C700070465DE72344E1685A68A56842F00102A6
:102C8000E96030468D605A6000F0D4F9083420467F
:102C900003B0BDE8F08F234430465A6842F0010289
:102CA0005A6000F0C7F90834204603B0BDE8F08F41
:102CB000BC68636823F00308A84504D3C5EB080388
:102CC0000F2B00F38C80554BDFF860911A68D9F810
:102CD000003001332A4404EB080A00F0608102F559
:102CE00080520F3222F47F6222F00F0211463046EA
:102CF000019200F0A1F9B0F1FF3F8346019A00F084
:102D00005881824500F2FC80454B1968DA45114430
:102D1000196000F05381D9F80000DFF810E10130AC
:102D20001BBFCAEB0B0A5144CEF800B019601BF070
:102D3000070100F01781C1F10800C1F580518344FB
:102D400008315A44C2F30B02C2EB0109494630462E
:102D5000019300F071F9431C019B00F03F81CBEB24
:102D600000024A4442F001021968C7F808B0494419
:102D7000BC42CBF804201960DFF8A49016D0B8F15B
:102D80000F0F40F2FD806268A8F10C0323F00703E7
:102D9000E01802F001024FF0050E1A430F2B62609B
:102DA000C0F804E0C0F808E000F21C811D4BBC68CC
:102DB0001A68914288BF19601B4B1A689142626879
:102DC00088BF196022F003029542A2EB050301D8E7
:102DD0000F2B04DC304600F02DF9002438E762198F
:102DE00043F0010345F0010565603046BA60536069
:102DF00000F020F90834204603B0BDE8F08F142B12
:102E000071D9542B00F2A480280B00F16F0E4FEA09
:102E10004E036E3076E600BF1C0CFF1F2016FF1F0E
:102E20002416FF1F1C16FF1F1816FF1F2810FF1F58
:102E30005A0A042A5ED9142A00F2B38002F15C0116
:102E400049005B3207EB810C57F82110DFF8DC8179
:102E5000ACF1080C8C4500F088804A6822F003022F
:102E6000934202D289688C45F7D1D1F80CC07A68B8
:102E7000C4F80CC0A160CCF80840CC6088E66319A7
:102E800042F0010745F00105656030464B610B617A
:102E9000C3F80CE0C3F808E05F609A50083400F013
:102EA000C9F8D5E64A6873E608F1010818F0030F7F
:102EB0000CF1080C7FF47FAE30E0DC68A34208BF61
:102EC00002303FF435AEB3E60B440C465A68C9688D
:102ED00054F8085F42F001025A603046E9608D60A4
:102EE00000F0A8F8B4E603F15C0E03F15B004FEAD2
:102EF0004E0307E69A0902F1390149003832A1E789
:102F0000BC424A4B3FF400AF9C68626822F0030267
:102F10005AE759F80839994540F0828010F0030FBC
:102F200000F1FF30F5D17B6823EA04037B60640085
:102F30009C423FF6BDAE002C3FF4BAAE1C42404668
:102F40007FF435AE64001C4200F10400FAD02EE696
:102F5000B3F5AA7F18D8E80B00F1780E4FEA4E03BC
:102F60007730CFE54FF48051EBE60121D8F80430FB
:102F7000921001FA02F21A43C8F80420614677E77A
:102F80000123CBF8043025E740F25452934220D875
:102F9000A80C00F17D0E4FEA4E037C30B2E51032F2
:102FA000A4E6542A26D81A0B02F16F0149006E32AA
:102FB00048E7BC68626822F0030205E7CAF30B0029
:102FC00000287FF4A8AE4244BB6842F001025A6078
:102FD000ECE6FE234FF07F0E7E2093E501224FF0BA
:102FE0000009C1E604F10801304600F0A9F8D9F85B
:102FF0000010DBE6B2F5AA7F05D8DA0B02F1780102
:10300000490077321EE740F254518A4205D89A0CA3
:1030100002F17D0149007C3214E7FE217E2211E796
:103020007B6884E7E808431C5B00F8E51C0CFF1F85
:10303000704700BF704700BF38B5074C00230546F6
:1030400008462360FDF7BAFD431C00D038BD236855
:10305000002BFBD02B6038BD6016FF1F024B13B155
:10306000024800F005B87047000000007D30000005
:10307000002301461A46184600F04AB938B5074DF4
:10308000074C2C1BA41005D0013C55F8043D984773
:10309000002CF9D1BDE8384000F0EAB9000000008A
:1030A00000000000F8B5234F0C460646FFF7C0FFAE
:1030B000BB685D6825F00305291B01F6EF7121F45B
:1030C0007F6121F00F01A1F58054B4F5805F07DB2B
:1030D00000213046FFF7B0FFBB682B44984204D074
:1030E0003046FFF7A7FF0020F8BD61423046FFF7EA
:1030F000A3FF01300DD0104BBA6819682D1B45F0A5
:1031000001053046091B55601960FFF793FF012048
:10311000F8BD00213046FFF78FFFBA68831A0F2BE6
:10312000DEDD064C0449246843F00103001B5360B4
:103130000860D5E71C0CFF1F2416FF1F2810FF1F77
:10314000002945D02DE9F0410D468046FFF770FF7C
:1031500055F8047C6A4927F00103A5F10804E21838
:103160008E685068B24220F0030062D0FE075060C3
:103170000BD455F8087CE41B01F1080EA5687545D1
:103180003B446FD0E768EF60BD6015186D68ED07D0
:1031900042D543F001026260E350B3F5007F18D2DC
:1031A000DB085A1C4D6851F83270A76001209B1053
:1031B00000FA03F301EBC2001D430838E0604D60E4
:1031C00041F83240FC604046BDE8F041FFF732BFB5
:1031D00070475A0A042A53D89A0902F139077F0026
:1031E00002F1380501EB870051F8272044490838DF
:1031F00090424DD0516821F003018B4202D2926877
:103200009042F7D1D068E060A2608460D46040460C
:10321000BDE8F041FFF70EBF95683A4FBD42034449
:103220003FD0D068E86043F0010285606260E350FF
:10323000B3E7FF07034407D455F8082CA41A134436
:10324000A068E268C26090602F4A126843F00100F3
:10325000934260608C60B6D32C4B40461968FFF7F0
:1032600021FFB0E711184968C90744D49168D268B2
:10327000CA60034443F0010091606060E350A2E73C
:10328000142A17D802F15C077F0002F15B05A9E759
:10329000AA104B68012505FA02F213434B6002465F
:1032A000B1E743F001024C610C61E560A56062602A
:1032B000E35088E7542A06D81A0B02F16F077F0003
:1032C00002F16E058EE7B2F5AA7F06D8DA0B02F19D
:1032D00078077F0002F1770584E740F2545082427C
:1032E00006D89A0C02F17D077F0002F17C0579E790
:1032F000FE277E2576E743F001026260E35062E735
:103300001C0CFF1F240CFF1F2410FF1F2016FF1F83
:103310002DE9F047254C2568D5F8484106468846F2
:1033200092469946C4B360681F2817DC431C76B1E7
:1033300004EB80050122C5F888A0D4F888118240EA
:103340001143022EC4F88811C5F808911ED002302E
:10335000636044F820800020BDE8F087144B03B37D
:103360004FF4C870FFF7A4FB0446D0B1D5F848313C
:10337000002780E88800C5F8484138460123C4F892
:103380008871C4F88C71002EE1D0D1E7D4F88C118B
:103390000A43C4F88C21DAE705F5A674C5F848415C
:1033A000C1E74FF0FF30BDE8F08700BF54340000A4
:1033B000B12A000053656E74206D73673A200000D7
:1033C0005265636569766564206D73673A20000015
:1033D0000D0AFFFF0000000000000000711C00004B
:1033E000691C0000651C0000611C00005D1C0000E1
:1033F000591C0000551C0000511C00000015191537
:10340000000100004C07FF1F120000000002000036
:103410007807FF1F4300000000030000D407FF1FD0
:1034200000000000010309046007FF1F0000000006
:1034300002030904BC07FF1F000000000303090486
:10344000D807FF1F0000000000000000000000007F
:1034500000000000F007FF1FF8B500BFF8BC08BC73
:103460009E4670475D30000035040000AD06000048
:04347000F8B500BFEC
:103474006416FF1FDC33000000000000E8030000B6
:1034840000000000FFFFFFFF0A040000120110010A
:1034940002000040C0168304770201020301000009
:1034A40018035400650065006E0073007900640021
:1034B400750069006E006F0009024300020100C03C
:1034C4003209040000010202010005240010010574
:1034D40024010101042402060524060001070582D3
:1034E4000310004009040100020A0000000705035C
:1034F4000240000007058402400000001603550046
:10350400530042002000530065007200690061000E
:103514006C000000040309040C0300000000000018
:103524000000000000000000000000000000000097
:1035340000000000DC0AFF1F440BFF1FAC0BFF1F41
:103544000000000000000000000000000000000077
:103554000000000000000000000000000000000067
:103564000000000000000000000000000000000057
:103574000000000000000000000000000000000047
:103584000000000000000000000000000000000037
:103594000000000000000000000000000000000027
:1035A4000000000000000000000000000000000017
:1035B4000000000000000000000000000000000007
:1035C40000000000000000000000000000000000F7
:1035D40000000000000000000100000000000000E6
:1035E4000E33CDAB34126DE6ECDE05000B000000AB
:1035F40000000000000000000000000000000000C7
:1036040000000000000000000000000000000000B6
:1036140000000000000000000000000000000000A6
:103624000000000000000000000000000000000096
:103954000000000000000000F007FF1F000000004E
:10396400000000001C0CFF1F1C0CFF1F240CFF1F79
:10397400240CFF1F2C0CFF1F2C0CFF1F340CFF1FEB
:10398400340CFF1F3C0CFF1F3C0CFF1F440CFF1F9B
:10399400440CFF1F4C0CFF1F4C0CFF1F540CFF1F4B
:1039A400540CFF1F5C0CFF1F5C0CFF1F640CFF1FFB
:1039B400640CFF1F6C0CFF1F6C0CFF1F740CFF1FAB
:1039C400740CFF1F7C0CFF1F7C0CFF1F840CFF1F5B
:1039D400840CFF1F8C0CFF1F8C0CFF1F940CFF1F0B
:1039E400940CFF1F9C0CFF1F9C0CFF1FA40CFF1FBB
:1039F400A40CFF1FAC0CFF1FAC0CFF1FB40CFF1F6B
:103A0400B40CFF1FBC0CFF1FBC0CFF1FC40CFF1F1A
:103A1400C40CFF1FCC0CFF1FCC0CFF1FD40CFF1FCA
:103A2400D40CFF1FDC0CFF1FDC0CFF1FE40CFF1F7A
:103A3400E40CFF1FEC0CFF1FEC0CFF1FF40CFF1F2A
:103A4400F40CFF1FFC0CFF1FFC0CFF1F040DFF1FD9
:103A5400040DFF1F0C0DFF1F0C0DFF1F140DFF1F86
:103A6400140DFF1F1C0DFF1F1C0DFF1F240DFF1F36
:103A7400240DFF1F2C0DFF1F2C0DFF1F340DFF1FE6
:103A8400340DFF1F3C0DFF1F3C0DFF1F440DFF1F96
:103A9400440DFF1F4C0DFF1F4C0DFF1F540DFF1F46
:103AA400540DFF1F5C0DFF1F5C0DFF1F640DFF1FF6
:103AB400640DFF1F6C0DFF1F6C0DFF1F740DFF1FA6
:103AC400740DFF1F7C0DFF1F7C0DFF1F840DFF1F56
:103AD400840DFF1F8C0DFF1F8C0DFF1F940DFF1F06
:103AE400940DFF1F9C0DFF1F9C0DFF1FA40DFF1FB6
:103AF400A40DFF1FAC0DFF1FAC0DFF1FB40DFF1F66
:103B0400B40DFF1FBC0DFF1FBC0DFF1FC40DFF1F15
:103B1400C40DFF1FCC0DFF1FCC0DFF1FD40DFF1FC5
:103B2400D40DFF1FDC0DFF1FDC0DFF1FE40DFF1F75
:103B3400E40DFF1FEC0DFF1FEC0DFF1FF40DFF1F25
:103B4400F40DFF1FFC0DFF1FFC0DFF1F040EFF1FD4
:103B5400040EFF1F0C0EFF1F0C0EFF1F140EFF1F81
:103B6400140EFF1F1C0EFF1F1C0EFF1F240EFF1F31
:103B7400240EFF1F2C0EFF1F2C0EFF1F340EFF1FE1
:103B8400340EFF1F3C0EFF1F3C0EFF1F440EFF1F91
:103B9400440EFF1F4C0EFF1F4C0EFF1F540EFF1F41
:103BA400540EFF1F5C0EFF1F5C0EFF1F640EFF1FF1
:103BB400640EFF1F6C0EFF1F6C0EFF1F740EFF1FA1
:103BC400740EFF1F7C0EFF1F7C0EFF1F840EFF1F51
:103BD400840EFF1F8C0EFF1F8C0EFF1F940EFF1F01
:103BE400940EFF1F9C0EFF1F9C0EFF1FA40EFF1FB1
:103BF400A40EFF1FAC0EFF1FAC0EFF1FB40EFF1F61
:103C0400B40EFF1FBC0EFF1FBC0EFF1FC40EFF1F10
:103C1400C40EFF1FCC0EFF1FCC0EFF1FD40EFF1FC0
:103C2400D40EFF1FDC0EFF1FDC0EFF1FE40EFF1F70
:103C3400E40EFF1FEC0EFF1FEC0EFF1FF40EFF1F20
:103C4400F40EFF1FFC0EFF1FFC0EFF1F040FFF1FCF
:103C5400040FFF1F0C0FFF1F0C0FFF1F140FFF1F7C
:103C6400140FFF1F1C0FFF1F1C0FFF1F240FFF1F2C
:103C7400240FFF1F2C0FFF1F2C0FFF1F340FFF1FDC
:103C8400340FFF1F3C0FFF1F3C0FFF1F440FFF1F8C
:103C9400440FFF1F4C0FFF1F4C0FFF1F540FFF1F3C
:103CA400540FFF1F5C0FFF1F5C0FFF1F640FFF1FEC
:103CB400640FFF1F6C0FFF1F6C0FFF1F740FFF1F9C
:103CC400740FFF1F7C0FFF1F7C0FFF1F840FFF1F4C
:103CD400840FFF1F8C0FFF1F8C0FFF1F940FFF1FFC
:103CE400940FFF1F9C0FFF1F9C0FFF1FA40FFF1FAC
:103CF400A40FFF1FAC0FFF1FAC0FFF1FB40FFF1F5C
:103D0400B40FFF1FBC0FFF1FBC0FFF1FC40FFF1F0B
:103D1400C40FFF1FCC0FFF1FCC0FFF1FD40FFF1FBB
:103D2400D40FFF1FDC0FFF1FDC0FFF1FE40FFF1F6B
:103D3400E40FFF1FEC0FFF1FEC0FFF1FF40FFF1F1B
:103D4400F40FFF1FFC0FFF1FFC0FFF1F0410FF1FCA
:103D54000410FF1F0C10FF1F0C10FF1F1410FF1F77
:0C3D64001410FF1F00000200FFFFFFFF13
:00000001FF
